{
  "_format": "hh-sol-artifact-1",
  "contractName": "FlowFit",
  "sourceName": "contracts/FlowFit.sol",
  "abi": [
    {
      "inputs": [],
      "stateMutability": "nonpayable",
      "type": "constructor"
    },
    {
      "inputs": [],
      "name": "AccessControlBadConfirmation",
      "type": "error"
    },
    {
      "inputs": [
        {
          "internalType": "address",
          "name": "account",
          "type": "address"
        },
        {
          "internalType": "bytes32",
          "name": "neededRole",
          "type": "bytes32"
        }
      ],
      "name": "AccessControlUnauthorizedAccount",
      "type": "error"
    },
    {
      "inputs": [],
      "name": "ECDSAInvalidSignature",
      "type": "error"
    },
    {
      "inputs": [
        {
          "internalType": "uint256",
          "name": "length",
          "type": "uint256"
        }
      ],
      "name": "ECDSAInvalidSignatureLength",
      "type": "error"
    },
    {
      "inputs": [
        {
          "internalType": "bytes32",
          "name": "s",
          "type": "bytes32"
        }
      ],
      "name": "ECDSAInvalidSignatureS",
      "type": "error"
    },
    {
      "anonymous": false,
      "inputs": [
        {
          "indexed": true,
          "internalType": "address",
          "name": "participant",
          "type": "address"
        },
        {
          "indexed": true,
          "internalType": "uint256",
          "name": "challengeId",
          "type": "uint256"
        }
      ],
      "name": "ChallengeCreated",
      "type": "event"
    },
    {
      "anonymous": false,
      "inputs": [
        {
          "indexed": true,
          "internalType": "address",
          "name": "participant",
          "type": "address"
        },
        {
          "indexed": true,
          "internalType": "uint256",
          "name": "challengeId",
          "type": "uint256"
        },
        {
          "indexed": false,
          "internalType": "bool",
          "name": "success",
          "type": "bool"
        }
      ],
      "name": "ChallengeFinalized",
      "type": "event"
    },
    {
      "anonymous": false,
      "inputs": [
        {
          "indexed": true,
          "internalType": "bytes32",
          "name": "role",
          "type": "bytes32"
        },
        {
          "indexed": true,
          "internalType": "bytes32",
          "name": "previousAdminRole",
          "type": "bytes32"
        },
        {
          "indexed": true,
          "internalType": "bytes32",
          "name": "newAdminRole",
          "type": "bytes32"
        }
      ],
      "name": "RoleAdminChanged",
      "type": "event"
    },
    {
      "anonymous": false,
      "inputs": [
        {
          "indexed": true,
          "internalType": "bytes32",
          "name": "role",
          "type": "bytes32"
        },
        {
          "indexed": true,
          "internalType": "address",
          "name": "account",
          "type": "address"
        },
        {
          "indexed": true,
          "internalType": "address",
          "name": "sender",
          "type": "address"
        }
      ],
      "name": "RoleGranted",
      "type": "event"
    },
    {
      "anonymous": false,
      "inputs": [
        {
          "indexed": true,
          "internalType": "bytes32",
          "name": "role",
          "type": "bytes32"
        },
        {
          "indexed": true,
          "internalType": "address",
          "name": "account",
          "type": "address"
        },
        {
          "indexed": true,
          "internalType": "address",
          "name": "sender",
          "type": "address"
        }
      ],
      "name": "RoleRevoked",
      "type": "event"
    },
    {
      "inputs": [],
      "name": "ADMIN_ROLE",
      "outputs": [
        {
          "internalType": "bytes32",
          "name": "",
          "type": "bytes32"
        }
      ],
      "stateMutability": "view",
      "type": "function"
    },
    {
      "inputs": [],
      "name": "DEFAULT_ADMIN_ROLE",
      "outputs": [
        {
          "internalType": "bytes32",
          "name": "",
          "type": "bytes32"
        }
      ],
      "stateMutability": "view",
      "type": "function"
    },
    {
      "inputs": [],
      "name": "DOMAIN_SEPARATOR",
      "outputs": [
        {
          "internalType": "bytes32",
          "name": "",
          "type": "bytes32"
        }
      ],
      "stateMutability": "view",
      "type": "function"
    },
    {
      "inputs": [],
      "name": "FUND_MANAGER",
      "outputs": [
        {
          "internalType": "bytes32",
          "name": "",
          "type": "bytes32"
        }
      ],
      "stateMutability": "view",
      "type": "function"
    },
    {
      "inputs": [],
      "name": "REPORT_TYPEHASH",
      "outputs": [
        {
          "internalType": "bytes32",
          "name": "",
          "type": "bytes32"
        }
      ],
      "stateMutability": "view",
      "type": "function"
    },
    {
      "inputs": [
        {
          "internalType": "address",
          "name": "verifier",
          "type": "address"
        }
      ],
      "name": "addManager",
      "outputs": [],
      "stateMutability": "nonpayable",
      "type": "function"
    },
    {
      "inputs": [
        {
          "internalType": "uint256",
          "name": "",
          "type": "uint256"
        }
      ],
      "name": "challenges",
      "outputs": [
        {
          "internalType": "address",
          "name": "participant",
          "type": "address"
        },
        {
          "internalType": "address",
          "name": "appKey",
          "type": "address"
        },
        {
          "internalType": "bool",
          "name": "finalized",
          "type": "bool"
        },
        {
          "internalType": "uint64",
          "name": "startDate",
          "type": "uint64"
        },
        {
          "internalType": "uint64",
          "name": "totalDays",
          "type": "uint64"
        },
        {
          "internalType": "uint64",
          "name": "failedDays",
          "type": "uint64"
        },
        {
          "internalType": "uint128",
          "name": "lockedAmount",
          "type": "uint128"
        }
      ],
      "stateMutability": "view",
      "type": "function"
    },
    {
      "inputs": [
        {
          "internalType": "uint256",
          "name": "challengeId",
          "type": "uint256"
        }
      ],
      "name": "finalizeChallenge",
      "outputs": [],
      "stateMutability": "nonpayable",
      "type": "function"
    },
    {
      "inputs": [
        {
          "internalType": "uint256",
          "name": "id",
          "type": "uint256"
        }
      ],
      "name": "getChallenge",
      "outputs": [
        {
          "components": [
            {
              "internalType": "address",
              "name": "participant",
              "type": "address"
            },
            {
              "internalType": "address",
              "name": "appKey",
              "type": "address"
            },
            {
              "internalType": "bool",
              "name": "finalized",
              "type": "bool"
            },
            {
              "internalType": "uint64",
              "name": "startDate",
              "type": "uint64"
            },
            {
              "internalType": "uint64",
              "name": "totalDays",
              "type": "uint64"
            },
            {
              "internalType": "uint64",
              "name": "failedDays",
              "type": "uint64"
            },
            {
              "internalType": "bool[]",
              "name": "missedDays",
              "type": "bool[]"
            },
            {
              "internalType": "uint128",
              "name": "lockedAmount",
              "type": "uint128"
            }
          ],
          "internalType": "struct FlowFit.Challenge",
          "name": "",
          "type": "tuple"
        }
      ],
      "stateMutability": "view",
      "type": "function"
    },
    {
      "inputs": [],
      "name": "getCurrentDay",
      "outputs": [
        {
          "internalType": "uint64",
          "name": "",
          "type": "uint64"
        }
      ],
      "stateMutability": "view",
      "type": "function"
    },
    {
      "inputs": [
        {
          "internalType": "bytes32",
          "name": "role",
          "type": "bytes32"
        }
      ],
      "name": "getRoleAdmin",
      "outputs": [
        {
          "internalType": "bytes32",
          "name": "",
          "type": "bytes32"
        }
      ],
      "stateMutability": "view",
      "type": "function"
    },
    {
      "inputs": [
        {
          "internalType": "bytes32",
          "name": "role",
          "type": "bytes32"
        },
        {
          "internalType": "address",
          "name": "account",
          "type": "address"
        }
      ],
      "name": "grantRole",
      "outputs": [],
      "stateMutability": "nonpayable",
      "type": "function"
    },
    {
      "inputs": [
        {
          "internalType": "bytes32",
          "name": "role",
          "type": "bytes32"
        },
        {
          "internalType": "address",
          "name": "account",
          "type": "address"
        }
      ],
      "name": "hasRole",
      "outputs": [
        {
          "internalType": "bool",
          "name": "",
          "type": "bool"
        }
      ],
      "stateMutability": "view",
      "type": "function"
    },
    {
      "inputs": [
        {
          "internalType": "uint64",
          "name": "daysCount",
          "type": "uint64"
        },
        {
          "internalType": "address",
          "name": "appKey",
          "type": "address"
        }
      ],
      "name": "initiateChallenge",
      "outputs": [
        {
          "internalType": "uint256",
          "name": "",
          "type": "uint256"
        }
      ],
      "stateMutability": "payable",
      "type": "function"
    },
    {
      "inputs": [
        {
          "internalType": "address",
          "name": "verifier",
          "type": "address"
        }
      ],
      "name": "removeManager",
      "outputs": [],
      "stateMutability": "nonpayable",
      "type": "function"
    },
    {
      "inputs": [
        {
          "internalType": "bytes32",
          "name": "role",
          "type": "bytes32"
        },
        {
          "internalType": "address",
          "name": "callerConfirmation",
          "type": "address"
        }
      ],
      "name": "renounceRole",
      "outputs": [],
      "stateMutability": "nonpayable",
      "type": "function"
    },
    {
      "inputs": [
        {
          "internalType": "uint256",
          "name": "challengeId",
          "type": "uint256"
        },
        {
          "internalType": "uint64",
          "name": "dayIndex",
          "type": "uint64"
        }
      ],
      "name": "reportMissedDay",
      "outputs": [],
      "stateMutability": "nonpayable",
      "type": "function"
    },
    {
      "inputs": [
        {
          "internalType": "uint256",
          "name": "challengeId",
          "type": "uint256"
        },
        {
          "internalType": "uint64",
          "name": "dayIndex",
          "type": "uint64"
        },
        {
          "internalType": "bytes",
          "name": "signature",
          "type": "bytes"
        }
      ],
      "name": "reportMissedDayWithSignature",
      "outputs": [],
      "stateMutability": "nonpayable",
      "type": "function"
    },
    {
      "inputs": [
        {
          "internalType": "bytes32",
          "name": "role",
          "type": "bytes32"
        },
        {
          "internalType": "address",
          "name": "account",
          "type": "address"
        }
      ],
      "name": "revokeRole",
      "outputs": [],
      "stateMutability": "nonpayable",
      "type": "function"
    },
    {
      "inputs": [
        {
          "internalType": "bytes4",
          "name": "interfaceId",
          "type": "bytes4"
        }
      ],
      "name": "supportsInterface",
      "outputs": [
        {
          "internalType": "bool",
          "name": "",
          "type": "bool"
        }
      ],
      "stateMutability": "view",
      "type": "function"
    },
    {
      "inputs": [
        {
          "internalType": "address",
          "name": "to",
          "type": "address"
        },
        {
          "internalType": "uint256",
          "name": "amount",
          "type": "uint256"
        }
      ],
      "name": "withdraw",
      "outputs": [],
      "stateMutability": "nonpayable",
      "type": "function"
    },
    {
      "stateMutability": "payable",
      "type": "receive"
    }
  ],
  "bytecode": "0x608060405234801561001057600080fd5b506100246000801b336100f760201b60201c565b507f8b73c3c69bb8fe3d512ecc4cf759cc79239f7b179b0ffacaa9a75d522b39400f6040518060400160405280600781526020017f466c6f7746697400000000000000000000000000000000000000000000000000815250805190602001206040518060400160405280600181526020017f31000000000000000000000000000000000000000000000000000000000000008152508051906020012046306040516020016100d69594939291906102d9565b6040516020818303038152906040528051906020012060018190555061032c565b600061010983836101f460201b60201c565b6101e957600160008085815260200190815260200160002060000160008473ffffffffffffffffffffffffffffffffffffffff1673ffffffffffffffffffffffffffffffffffffffff16815260200190815260200160002060006101000a81548160ff02191690831515021790555061018661025e60201b60201c565b73ffffffffffffffffffffffffffffffffffffffff168273ffffffffffffffffffffffffffffffffffffffff16847f2f8788117e7eff1d82e926ec794901d17c78024a50270940304540a733656f0d60405160405180910390a4600190506101ee565b600090505b92915050565b600080600084815260200190815260200160002060000160008373ffffffffffffffffffffffffffffffffffffffff1673ffffffffffffffffffffffffffffffffffffffff16815260200190815260200160002060009054906101000a900460ff16905092915050565b600033905090565b6000819050919050565b61027981610266565b82525050565b6000819050919050565b6102928161027f565b82525050565b600073ffffffffffffffffffffffffffffffffffffffff82169050919050565b60006102c382610298565b9050919050565b6102d3816102b8565b82525050565b600060a0820190506102ee6000830188610270565b6102fb6020830187610270565b6103086040830186610270565b6103156060830185610289565b61032260808301846102ca565b9695505050505050565b612e8f8061033b6000396000f3fe60806040526004361061012e5760003560e01c80634a882fc3116100ab57806391d148541161006f57806391d1485414610408578063a217fddf14610445578063ac18de4314610470578063cdf6caa114610499578063d547741f146104c2578063f3fef3a3146104eb57610135565b80634a882fc31461031b578063755e55481461034657806375b238fc146103715780638f1d37761461039c5780638fe1e5f9146103df57610135565b80632f2ff15d116100f25780632f2ff15d1461024a5780633644e5151461027357806336568abe1461029e5780633e6968b6146102c7578063484dd61a146102f257610135565b806301ffc9a71461013a57806317da414d146101775780631bdd4b74146101a7578063248a9ca3146101e45780632d06177a1461022157610135565b3661013557005b600080fd5b34801561014657600080fd5b50610161600480360381019061015c9190611f77565b610514565b60405161016e9190611fbf565b60405180910390f35b610191600480360381019061018c9190612078565b61058e565b60405161019e91906120d1565b60405180910390f35b3480156101b357600080fd5b506101ce60048036038101906101c99190612118565b610841565b6040516101db91906122fc565b60405180910390f35b3480156101f057600080fd5b5061020b60048036038101906102069190612354565b610aa2565b6040516102189190612390565b60405180910390f35b34801561022d57600080fd5b50610248600480360381019061024391906123ab565b610ac1565b005b34801561025657600080fd5b50610271600480360381019061026c91906123d8565b610b1a565b005b34801561027f57600080fd5b50610288610b3c565b6040516102959190612390565b60405180910390f35b3480156102aa57600080fd5b506102c560048036038101906102c091906123d8565b610b42565b005b3480156102d357600080fd5b506102dc610bbd565b6040516102e99190612427565b60405180910390f35b3480156102fe57600080fd5b5061031960048036038101906103149190612118565b610be0565b005b34801561032757600080fd5b50610330610fc2565b60405161033d9190612390565b60405180910390f35b34801561035257600080fd5b5061035b610fe6565b6040516103689190612390565b60405180910390f35b34801561037d57600080fd5b5061038661100a565b6040516103939190612390565b60405180910390f35b3480156103a857600080fd5b506103c360048036038101906103be9190612118565b61102e565b6040516103d69796959493929190612460565b60405180910390f35b3480156103eb57600080fd5b50610406600480360381019061040191906124cf565b611125565b005b34801561041457600080fd5b5061042f600480360381019061042a91906123d8565b611313565b60405161043c9190611fbf565b60405180910390f35b34801561045157600080fd5b5061045a61137d565b6040516104679190612390565b60405180910390f35b34801561047c57600080fd5b50610497600480360381019061049291906123ab565b611384565b005b3480156104a557600080fd5b506104c060048036038101906104bb9190612574565b6113dd565b005b3480156104ce57600080fd5b506104e960048036038101906104e491906123d8565b611717565b005b3480156104f757600080fd5b50610512600480360381019061050d91906125e8565b611739565b005b60007f7965db0b000000000000000000000000000000000000000000000000000000007bffffffffffffffffffffffffffffffffffffffffffffffffffffffff1916827bffffffffffffffffffffffffffffffffffffffffffffffffffffffff19161480610587575061058682611815565b5b9050919050565b60008034116105d2576040517f08c379a00000000000000000000000000000000000000000000000000000000081526004016105c990612685565b60405180910390fd5b600060028054905090506002600181600181540180825580915050039060005260206000209050506000600282815481106106105761060f6126a5565b5b90600052602060002090600502019050338160000160006101000a81548173ffffffffffffffffffffffffffffffffffffffff021916908373ffffffffffffffffffffffffffffffffffffffff160217905550838160010160006101000a81548173ffffffffffffffffffffffffffffffffffffffff021916908373ffffffffffffffffffffffffffffffffffffffff1602179055506106ae610bbd565b8160010160156101000a81548167ffffffffffffffff021916908367ffffffffffffffff160217905550848160020160006101000a81548167ffffffffffffffff021916908367ffffffffffffffff160217905550348160040160006101000a8154816fffffffffffffffffffffffffffffffff02191690836fffffffffffffffffffffffffffffffff16021790555060008160020160086101000a81548167ffffffffffffffff021916908367ffffffffffffffff1602179055508467ffffffffffffffff1667ffffffffffffffff81111561078e5761078d6126d4565b5b6040519080825280602002602001820160405280156107bc5781602001602082028036833780820191505090505b508160030190805190602001906107d4929190611daf565b5060008160010160146101000a81548160ff021916908315150217905550813373ffffffffffffffffffffffffffffffffffffffff167f9f85484cc8fb25030d222fdcd51eb22a0f9b61069192af1dbfb3ff32b78b6d6760405160405180910390a3819250505092915050565b610849611e55565b6002828154811061085d5761085c6126a5565b5b9060005260206000209060050201604051806101000160405290816000820160009054906101000a900473ffffffffffffffffffffffffffffffffffffffff1673ffffffffffffffffffffffffffffffffffffffff1673ffffffffffffffffffffffffffffffffffffffff1681526020016001820160009054906101000a900473ffffffffffffffffffffffffffffffffffffffff1673ffffffffffffffffffffffffffffffffffffffff1673ffffffffffffffffffffffffffffffffffffffff1681526020016001820160149054906101000a900460ff161515151581526020016001820160159054906101000a900467ffffffffffffffff1667ffffffffffffffff1667ffffffffffffffff1681526020016002820160009054906101000a900467ffffffffffffffff1667ffffffffffffffff1667ffffffffffffffff1681526020016002820160089054906101000a900467ffffffffffffffff1667ffffffffffffffff1667ffffffffffffffff16815260200160038201805480602002602001604051908101604052809291908181526020018280548015610a4857602002820191906000526020600020906000905b82829054906101000a900460ff16151581526020019060010190602082600001049283019260010382029150808411610a125790505b505050505081526020016004820160009054906101000a90046fffffffffffffffffffffffffffffffff166fffffffffffffffffffffffffffffffff166fffffffffffffffffffffffffffffffff16815250509050919050565b6000806000838152602001908152602001600020600101549050919050565b7fa49807205ce4d355092ef5a8a18f56e8913cf4a201fbe287825b095693c21775610aeb8161187f565b610b157fb58436161aa98d7442ffff3af203d6031ad86e54ee571266152aa0e83a52472683611893565b505050565b610b2382610aa2565b610b2c8161187f565b610b368383611893565b50505050565b60015481565b610b4a611984565b73ffffffffffffffffffffffffffffffffffffffff168173ffffffffffffffffffffffffffffffffffffffff1614610bae576040517f6697b23200000000000000000000000000000000000000000000000000000000815260040160405180910390fd5b610bb8828261198c565b505050565b60006103e86201518042610bd19190612761565b610bdb9190612761565b905090565b600060028281548110610bf657610bf56126a5565b5b906000526020600020906005020190508060010160009054906101000a900473ffffffffffffffffffffffffffffffffffffffff1673ffffffffffffffffffffffffffffffffffffffff163373ffffffffffffffffffffffffffffffffffffffff1614610c98576040517f08c379a0000000000000000000000000000000000000000000000000000000008152600401610c8f906127de565b60405180910390fd5b8060010160149054906101000a900460ff1615610cea576040517f08c379a0000000000000000000000000000000000000000000000000000000008152600401610ce19061284a565b60405180910390fd5b8060020160009054906101000a900467ffffffffffffffff168160010160159054906101000a900467ffffffffffffffff16610d26919061286a565b67ffffffffffffffff16610d38610bbd565b67ffffffffffffffff161015610d83576040517f08c379a0000000000000000000000000000000000000000000000000000000008152600401610d7a906128f2565b60405180910390fd5b60018160010160146101000a81548160ff02191690831515021790555060008160020160009054906101000a900467ffffffffffffffff1667ffffffffffffffff168260020160089054906101000a900467ffffffffffffffff168360020160009054906101000a900467ffffffffffffffff16610e019190612912565b67ffffffffffffffff168360040160009054906101000a90046fffffffffffffffffffffffffffffffff16610e36919061294e565b610e40919061298b565b905060008260000160009054906101000a900473ffffffffffffffffffffffffffffffffffffffff1673ffffffffffffffffffffffffffffffffffffffff16826fffffffffffffffffffffffffffffffff16604051610e9e906129ed565b60006040518083038185875af1925050503d8060008114610edb576040519150601f19603f3d011682016040523d82523d6000602084013e610ee0565b606091505b5050905080610f24576040517f08c379a0000000000000000000000000000000000000000000000000000000008152600401610f1b90612a4e565b60405180910390fd5b838360000160009054906101000a900473ffffffffffffffffffffffffffffffffffffffff1673ffffffffffffffffffffffffffffffffffffffff167f4d891138aa3bf8eb092ad2bc3d9c1f34594d0247149c374df85c1aafce565dc160008660020160089054906101000a900467ffffffffffffffff1667ffffffffffffffff1614604051610fb49190611fbf565b60405180910390a350505050565b7fdc524625ee47c1307f73ca251c4ad484f67e39655f5db729c813fed3e3fb2ce281565b7fb58436161aa98d7442ffff3af203d6031ad86e54ee571266152aa0e83a52472681565b7fa49807205ce4d355092ef5a8a18f56e8913cf4a201fbe287825b095693c2177581565b6002818154811061103e57600080fd5b90600052602060002090600502016000915090508060000160009054906101000a900473ffffffffffffffffffffffffffffffffffffffff16908060010160009054906101000a900473ffffffffffffffffffffffffffffffffffffffff16908060010160149054906101000a900460ff16908060010160159054906101000a900467ffffffffffffffff16908060020160009054906101000a900467ffffffffffffffff16908060020160089054906101000a900467ffffffffffffffff16908060040160009054906101000a90046fffffffffffffffffffffffffffffffff16905087565b60006002838154811061113b5761113a6126a5565b5b906000526020600020906005020190508060010160009054906101000a900473ffffffffffffffffffffffffffffffffffffffff1673ffffffffffffffffffffffffffffffffffffffff163373ffffffffffffffffffffffffffffffffffffffff16146111dd576040517f08c379a00000000000000000000000000000000000000000000000000000000081526004016111d4906127de565b60405180910390fd5b8060010160149054906101000a900460ff161561122f576040517f08c379a000000000000000000000000000000000000000000000000000000000815260040161122690612aba565b60405180910390fd5b806003018267ffffffffffffffff168154811061124f5761124e6126a5565b5b90600052602060002090602091828204019190069054906101000a900460ff1661130e576001816003018367ffffffffffffffff1681548110611295576112946126a5565b5b90600052602060002090602091828204019190066101000a81548160ff02191690831515021790555080600201600881819054906101000a900467ffffffffffffffff16809291906112e690612ada565b91906101000a81548167ffffffffffffffff021916908367ffffffffffffffff160217905550505b505050565b600080600084815260200190815260200160002060000160008373ffffffffffffffffffffffffffffffffffffffff1673ffffffffffffffffffffffffffffffffffffffff16815260200190815260200160002060009054906101000a900460ff16905092915050565b6000801b81565b7fa49807205ce4d355092ef5a8a18f56e8913cf4a201fbe287825b095693c217756113ae8161187f565b6113d87fb58436161aa98d7442ffff3af203d6031ad86e54ee571266152aa0e83a5247268361198c565b505050565b6000600285815481106113f3576113f26126a5565b5b906000526020600020906005020190508060010160149054906101000a900460ff1615611455576040517f08c379a000000000000000000000000000000000000000000000000000000000815260040161144c90612b56565b60405180910390fd5b8060020160009054906101000a900467ffffffffffffffff1667ffffffffffffffff168467ffffffffffffffff16106114c3576040517f08c379a00000000000000000000000000000000000000000000000000000000081526004016114ba90612bc2565b60405180910390fd5b60007fdc524625ee47c1307f73ca251c4ad484f67e39655f5db729c813fed3e3fb2ce286866040516020016114fa93929190612be2565b604051602081830303815290604052805190602001209050600060015482604051602001611529929190612c91565b604051602081830303815290604052805190602001209050600061159a86868080601f016020809104026020016040519081016040528093929190818152602001838380828437600081840152601f19601f8201169050808301925050505050505083611a7e90919063ffffffff16565b90508360010160009054906101000a900473ffffffffffffffffffffffffffffffffffffffff1673ffffffffffffffffffffffffffffffffffffffff168173ffffffffffffffffffffffffffffffffffffffff161461162e576040517f08c379a000000000000000000000000000000000000000000000000000000000815260040161162590612d14565b60405180910390fd5b836003018767ffffffffffffffff168154811061164e5761164d6126a5565b5b90600052602060002090602091828204019190069054906101000a900460ff1661170d576001846003018867ffffffffffffffff1681548110611694576116936126a5565b5b90600052602060002090602091828204019190066101000a81548160ff02191690831515021790555083600201600881819054906101000a900467ffffffffffffffff16809291906116e590612ada565b91906101000a81548167ffffffffffffffff021916908367ffffffffffffffff160217905550505b5050505050505050565b61172082610aa2565b6117298161187f565b611733838361198c565b50505050565b7fb58436161aa98d7442ffff3af203d6031ad86e54ee571266152aa0e83a5247266117638161187f565b60008373ffffffffffffffffffffffffffffffffffffffff1683604051611789906129ed565b60006040518083038185875af1925050503d80600081146117c6576040519150601f19603f3d011682016040523d82523d6000602084013e6117cb565b606091505b505090508061180f576040517f08c379a000000000000000000000000000000000000000000000000000000000815260040161180690612d80565b60405180910390fd5b50505050565b60007f01ffc9a7000000000000000000000000000000000000000000000000000000007bffffffffffffffffffffffffffffffffffffffffffffffffffffffff1916827bffffffffffffffffffffffffffffffffffffffffffffffffffffffff1916149050919050565b6118908161188b611984565b611aaa565b50565b600061189f8383611313565b61197957600160008085815260200190815260200160002060000160008473ffffffffffffffffffffffffffffffffffffffff1673ffffffffffffffffffffffffffffffffffffffff16815260200190815260200160002060006101000a81548160ff021916908315150217905550611916611984565b73ffffffffffffffffffffffffffffffffffffffff168273ffffffffffffffffffffffffffffffffffffffff16847f2f8788117e7eff1d82e926ec794901d17c78024a50270940304540a733656f0d60405160405180910390a46001905061197e565b600090505b92915050565b600033905090565b60006119988383611313565b15611a7357600080600085815260200190815260200160002060000160008473ffffffffffffffffffffffffffffffffffffffff1673ffffffffffffffffffffffffffffffffffffffff16815260200190815260200160002060006101000a81548160ff021916908315150217905550611a10611984565b73ffffffffffffffffffffffffffffffffffffffff168273ffffffffffffffffffffffffffffffffffffffff16847ff6391f5c32d9c69d2a47ea670b442974b53935d1edc7fd64eb21e047a839171b60405160405180910390a460019050611a78565b600090505b92915050565b600080600080611a8e8686611afb565b925092509250611a9e8282611b57565b82935050505092915050565b611ab48282611313565b611af75780826040517fe2517d3f000000000000000000000000000000000000000000000000000000008152600401611aee929190612da0565b60405180910390fd5b5050565b60008060006041845103611b405760008060006020870151925060408701519150606087015160001a9050611b3288828585611cbb565b955095509550505050611b50565b60006002855160001b9250925092505b9250925092565b60006003811115611b6b57611b6a612dc9565b5b826003811115611b7e57611b7d612dc9565b5b0315611cb75760016003811115611b9857611b97612dc9565b5b826003811115611bab57611baa612dc9565b5b03611be2576040517ff645eedf00000000000000000000000000000000000000000000000000000000815260040160405180910390fd5b60026003811115611bf657611bf5612dc9565b5b826003811115611c0957611c08612dc9565b5b03611c4e578060001c6040517ffce698f7000000000000000000000000000000000000000000000000000000008152600401611c4591906120d1565b60405180910390fd5b600380811115611c6157611c60612dc9565b5b826003811115611c7457611c73612dc9565b5b03611cb657806040517fd78bce0c000000000000000000000000000000000000000000000000000000008152600401611cad9190612390565b60405180910390fd5b5b5050565b60008060007f7fffffffffffffffffffffffffffffff5d576e7357a4501ddfe92f46681b20a08460001c1115611cfb576000600385925092509250611da5565b600060018888888860405160008152602001604052604051611d209493929190612e14565b6020604051602081039080840390855afa158015611d42573d6000803e3d6000fd5b505050602060405103519050600073ffffffffffffffffffffffffffffffffffffffff168173ffffffffffffffffffffffffffffffffffffffff1603611d9657600060016000801b93509350935050611da5565b8060008060001b935093509350505b9450945094915050565b82805482825590600052602060002090601f01602090048101928215611e445791602002820160005b83821115611e1557835183826101000a81548160ff0219169083151502179055509260200192600101602081600001049283019260010302611dd8565b8015611e425782816101000a81549060ff0219169055600101602081600001049283019260010302611e15565b505b509050611e519190611ef8565b5090565b604051806101000160405280600073ffffffffffffffffffffffffffffffffffffffff168152602001600073ffffffffffffffffffffffffffffffffffffffff168152602001600015158152602001600067ffffffffffffffff168152602001600067ffffffffffffffff168152602001600067ffffffffffffffff1681526020016060815260200160006fffffffffffffffffffffffffffffffff1681525090565b5b80821115611f11576000816000905550600101611ef9565b5090565b600080fd5b600080fd5b60007fffffffff0000000000000000000000000000000000000000000000000000000082169050919050565b611f5481611f1f565b8114611f5f57600080fd5b50565b600081359050611f7181611f4b565b92915050565b600060208284031215611f8d57611f8c611f15565b5b6000611f9b84828501611f62565b91505092915050565b60008115159050919050565b611fb981611fa4565b82525050565b6000602082019050611fd46000830184611fb0565b92915050565b600067ffffffffffffffff82169050919050565b611ff781611fda565b811461200257600080fd5b50565b60008135905061201481611fee565b92915050565b600073ffffffffffffffffffffffffffffffffffffffff82169050919050565b60006120458261201a565b9050919050565b6120558161203a565b811461206057600080fd5b50565b6000813590506120728161204c565b92915050565b6000806040838503121561208f5761208e611f15565b5b600061209d85828601612005565b92505060206120ae85828601612063565b9150509250929050565b6000819050919050565b6120cb816120b8565b82525050565b60006020820190506120e660008301846120c2565b92915050565b6120f5816120b8565b811461210057600080fd5b50565b600081359050612112816120ec565b92915050565b60006020828403121561212e5761212d611f15565b5b600061213c84828501612103565b91505092915050565b61214e8161203a565b82525050565b61215d81611fa4565b82525050565b61216c81611fda565b82525050565b600081519050919050565b600082825260208201905092915050565b6000819050602082019050919050565b60006121aa8383612154565b60208301905092915050565b6000602082019050919050565b60006121ce82612172565b6121d8818561217d565b93506121e38361218e565b8060005b838110156122145781516121fb888261219e565b9750612206836121b6565b9250506001810190506121e7565b5085935050505092915050565b60006fffffffffffffffffffffffffffffffff82169050919050565b61224681612221565b82525050565b6000610100830160008301516122656000860182612145565b5060208301516122786020860182612145565b50604083015161228b6040860182612154565b50606083015161229e6060860182612163565b5060808301516122b16080860182612163565b5060a08301516122c460a0860182612163565b5060c083015184820360c08601526122dc82826121c3565b91505060e08301516122f160e086018261223d565b508091505092915050565b60006020820190508181036000830152612316818461224c565b905092915050565b6000819050919050565b6123318161231e565b811461233c57600080fd5b50565b60008135905061234e81612328565b92915050565b60006020828403121561236a57612369611f15565b5b60006123788482850161233f565b91505092915050565b61238a8161231e565b82525050565b60006020820190506123a56000830184612381565b92915050565b6000602082840312156123c1576123c0611f15565b5b60006123cf84828501612063565b91505092915050565b600080604083850312156123ef576123ee611f15565b5b60006123fd8582860161233f565b925050602061240e85828601612063565b9150509250929050565b61242181611fda565b82525050565b600060208201905061243c6000830184612418565b92915050565b61244b8161203a565b82525050565b61245a81612221565b82525050565b600060e082019050612475600083018a612442565b6124826020830189612442565b61248f6040830188611fb0565b61249c6060830187612418565b6124a96080830186612418565b6124b660a0830185612418565b6124c360c0830184612451565b98975050505050505050565b600080604083850312156124e6576124e5611f15565b5b60006124f485828601612103565b925050602061250585828601612005565b9150509250929050565b600080fd5b600080fd5b600080fd5b60008083601f8401126125345761253361250f565b5b8235905067ffffffffffffffff81111561255157612550612514565b5b60208301915083600182028301111561256d5761256c612519565b5b9250929050565b6000806000806060858703121561258e5761258d611f15565b5b600061259c87828801612103565b94505060206125ad87828801612005565b935050604085013567ffffffffffffffff8111156125ce576125cd611f1a565b5b6125da8782880161251e565b925092505092959194509250565b600080604083850312156125ff576125fe611f15565b5b600061260d85828601612063565b925050602061261e85828601612103565b9150509250929050565b600082825260208201905092915050565b7f4465706f73697420726571756972656400000000000000000000000000000000600082015250565b600061266f601083612628565b915061267a82612639565b602082019050919050565b6000602082019050818103600083015261269e81612662565b9050919050565b7f4e487b7100000000000000000000000000000000000000000000000000000000600052603260045260246000fd5b7f4e487b7100000000000000000000000000000000000000000000000000000000600052604160045260246000fd5b7f4e487b7100000000000000000000000000000000000000000000000000000000600052601260045260246000fd5b7f4e487b7100000000000000000000000000000000000000000000000000000000600052601160045260246000fd5b600061276c82611fda565b915061277783611fda565b92508261278757612786612703565b5b828204905092915050565b7f4e6f7420617574686f72697a6564000000000000000000000000000000000000600082015250565b60006127c8600e83612628565b91506127d382612792565b602082019050919050565b600060208201905081810360008301526127f7816127bb565b9050919050565b7f416c72656164792066696e616c697a6564000000000000000000000000000000600082015250565b6000612834601183612628565b915061283f826127fe565b602082019050919050565b6000602082019050818103600083015261286381612827565b9050919050565b600061287582611fda565b915061288083611fda565b9250828201905067ffffffffffffffff8111156128a05761289f612732565b5b92915050565b7f4368616c6c656e6765206f6e676f696e67000000000000000000000000000000600082015250565b60006128dc601183612628565b91506128e7826128a6565b602082019050919050565b6000602082019050818103600083015261290b816128cf565b9050919050565b600061291d82611fda565b915061292883611fda565b9250828203905067ffffffffffffffff81111561294857612947612732565b5b92915050565b600061295982612221565b915061296483612221565b925082820261297281612221565b915080821461298457612983612732565b5b5092915050565b600061299682612221565b91506129a183612221565b9250826129b1576129b0612703565b5b828204905092915050565b600081905092915050565b50565b60006129d76000836129bc565b91506129e2826129c7565b600082019050919050565b60006129f8826129ca565b9150819050919050565b7f526566756e64206661696c656400000000000000000000000000000000000000600082015250565b6000612a38600d83612628565b9150612a4382612a02565b602082019050919050565b60006020820190508181036000830152612a6781612a2b565b9050919050565b7f4368616c6c656e676520656e6465640000000000000000000000000000000000600082015250565b6000612aa4600f83612628565b9150612aaf82612a6e565b602082019050919050565b60006020820190508181036000830152612ad381612a97565b9050919050565b6000612ae582611fda565b915067ffffffffffffffff8203612aff57612afe612732565b5b600182019050919050565b7f4368616c6c656e67652066696e616c697a656400000000000000000000000000600082015250565b6000612b40601383612628565b9150612b4b82612b0a565b602082019050919050565b60006020820190508181036000830152612b6f81612b33565b9050919050565b7f496e76616c69642064617920696e646578000000000000000000000000000000600082015250565b6000612bac601183612628565b9150612bb782612b76565b602082019050919050565b60006020820190508181036000830152612bdb81612b9f565b9050919050565b6000606082019050612bf76000830186612381565b612c0460208301856120c2565b612c116040830184612418565b949350505050565b600081905092915050565b7f1901000000000000000000000000000000000000000000000000000000000000600082015250565b6000612c5a600283612c19565b9150612c6582612c24565b600282019050919050565b6000819050919050565b612c8b612c868261231e565b612c70565b82525050565b6000612c9c82612c4d565b9150612ca88285612c7a565b602082019150612cb88284612c7a565b6020820191508190509392505050565b7f496e76616c6964207369676e6174757265000000000000000000000000000000600082015250565b6000612cfe601183612628565b9150612d0982612cc8565b602082019050919050565b60006020820190508181036000830152612d2d81612cf1565b9050919050565b7f5769746864726177206661696c65640000000000000000000000000000000000600082015250565b6000612d6a600f83612628565b9150612d7582612d34565b602082019050919050565b60006020820190508181036000830152612d9981612d5d565b9050919050565b6000604082019050612db56000830185612442565b612dc26020830184612381565b9392505050565b7f4e487b7100000000000000000000000000000000000000000000000000000000600052602160045260246000fd5b600060ff82169050919050565b612e0e81612df8565b82525050565b6000608082019050612e296000830187612381565b612e366020830186612e05565b612e436040830185612381565b612e506060830184612381565b9594505050505056fea264697066735822122016a86e6884d1f62b16f59ea3b2135f352070ccc894e802457262e4b72f1bb17964736f6c634300081c0033",
  "linkReferences": {},
  "deployedLinkReferences": {}
}