{
  "contracts/FlowFit.sol": {
    "FlowFit": {
      "abi": [
        {
          "inputs": [],
          "stateMutability": "nonpayable",
          "type": "constructor"
        },
        {
          "inputs": [],
          "name": "AccessControlBadConfirmation",
          "type": "error"
        },
        {
          "inputs": [
            {
              "internalType": "address",
              "name": "account",
              "type": "address"
            },
            {
              "internalType": "bytes32",
              "name": "neededRole",
              "type": "bytes32"
            }
          ],
          "name": "AccessControlUnauthorizedAccount",
          "type": "error"
        },
        {
          "inputs": [],
          "name": "ECDSAInvalidSignature",
          "type": "error"
        },
        {
          "inputs": [
            {
              "internalType": "uint256",
              "name": "length",
              "type": "uint256"
            }
          ],
          "name": "ECDSAInvalidSignatureLength",
          "type": "error"
        },
        {
          "inputs": [
            {
              "internalType": "bytes32",
              "name": "s",
              "type": "bytes32"
            }
          ],
          "name": "ECDSAInvalidSignatureS",
          "type": "error"
        },
        {
          "anonymous": false,
          "inputs": [
            {
              "indexed": true,
              "internalType": "address",
              "name": "participant",
              "type": "address"
            },
            {
              "indexed": true,
              "internalType": "uint256",
              "name": "challengeId",
              "type": "uint256"
            }
          ],
          "name": "ChallengeCreated",
          "type": "event"
        },
        {
          "anonymous": false,
          "inputs": [
            {
              "indexed": true,
              "internalType": "address",
              "name": "participant",
              "type": "address"
            },
            {
              "indexed": true,
              "internalType": "uint256",
              "name": "challengeId",
              "type": "uint256"
            },
            {
              "indexed": false,
              "internalType": "bool",
              "name": "success",
              "type": "bool"
            }
          ],
          "name": "ChallengeFinalized",
          "type": "event"
        },
        {
          "anonymous": false,
          "inputs": [
            {
              "indexed": true,
              "internalType": "bytes32",
              "name": "role",
              "type": "bytes32"
            },
            {
              "indexed": true,
              "internalType": "bytes32",
              "name": "previousAdminRole",
              "type": "bytes32"
            },
            {
              "indexed": true,
              "internalType": "bytes32",
              "name": "newAdminRole",
              "type": "bytes32"
            }
          ],
          "name": "RoleAdminChanged",
          "type": "event"
        },
        {
          "anonymous": false,
          "inputs": [
            {
              "indexed": true,
              "internalType": "bytes32",
              "name": "role",
              "type": "bytes32"
            },
            {
              "indexed": true,
              "internalType": "address",
              "name": "account",
              "type": "address"
            },
            {
              "indexed": true,
              "internalType": "address",
              "name": "sender",
              "type": "address"
            }
          ],
          "name": "RoleGranted",
          "type": "event"
        },
        {
          "anonymous": false,
          "inputs": [
            {
              "indexed": true,
              "internalType": "bytes32",
              "name": "role",
              "type": "bytes32"
            },
            {
              "indexed": true,
              "internalType": "address",
              "name": "account",
              "type": "address"
            },
            {
              "indexed": true,
              "internalType": "address",
              "name": "sender",
              "type": "address"
            }
          ],
          "name": "RoleRevoked",
          "type": "event"
        },
        {
          "inputs": [],
          "name": "ADMIN_ROLE",
          "outputs": [
            {
              "internalType": "bytes32",
              "name": "",
              "type": "bytes32"
            }
          ],
          "stateMutability": "view",
          "type": "function"
        },
        {
          "inputs": [],
          "name": "DEFAULT_ADMIN_ROLE",
          "outputs": [
            {
              "internalType": "bytes32",
              "name": "",
              "type": "bytes32"
            }
          ],
          "stateMutability": "view",
          "type": "function"
        },
        {
          "inputs": [],
          "name": "DOMAIN_SEPARATOR",
          "outputs": [
            {
              "internalType": "bytes32",
              "name": "",
              "type": "bytes32"
            }
          ],
          "stateMutability": "view",
          "type": "function"
        },
        {
          "inputs": [],
          "name": "FUND_MANAGER",
          "outputs": [
            {
              "internalType": "bytes32",
              "name": "",
              "type": "bytes32"
            }
          ],
          "stateMutability": "view",
          "type": "function"
        },
        {
          "inputs": [],
          "name": "REPORT_TYPEHASH",
          "outputs": [
            {
              "internalType": "bytes32",
              "name": "",
              "type": "bytes32"
            }
          ],
          "stateMutability": "view",
          "type": "function"
        },
        {
          "inputs": [
            {
              "internalType": "address",
              "name": "verifier",
              "type": "address"
            }
          ],
          "name": "addManager",
          "outputs": [],
          "stateMutability": "nonpayable",
          "type": "function"
        },
        {
          "inputs": [
            {
              "internalType": "uint256",
              "name": "",
              "type": "uint256"
            }
          ],
          "name": "challenges",
          "outputs": [
            {
              "internalType": "address",
              "name": "participant",
              "type": "address"
            },
            {
              "internalType": "address",
              "name": "appKey",
              "type": "address"
            },
            {
              "internalType": "bool",
              "name": "finalized",
              "type": "bool"
            },
            {
              "internalType": "uint64",
              "name": "startDate",
              "type": "uint64"
            },
            {
              "internalType": "uint64",
              "name": "totalDays",
              "type": "uint64"
            },
            {
              "internalType": "uint64",
              "name": "failedDays",
              "type": "uint64"
            },
            {
              "internalType": "uint128",
              "name": "lockedAmount",
              "type": "uint128"
            }
          ],
          "stateMutability": "view",
          "type": "function"
        },
        {
          "inputs": [
            {
              "internalType": "uint256",
              "name": "challengeId",
              "type": "uint256"
            }
          ],
          "name": "finalizeChallenge",
          "outputs": [],
          "stateMutability": "nonpayable",
          "type": "function"
        },
        {
          "inputs": [
            {
              "internalType": "uint256",
              "name": "id",
              "type": "uint256"
            }
          ],
          "name": "getChallenge",
          "outputs": [
            {
              "components": [
                {
                  "internalType": "address",
                  "name": "participant",
                  "type": "address"
                },
                {
                  "internalType": "address",
                  "name": "appKey",
                  "type": "address"
                },
                {
                  "internalType": "bool",
                  "name": "finalized",
                  "type": "bool"
                },
                {
                  "internalType": "uint64",
                  "name": "startDate",
                  "type": "uint64"
                },
                {
                  "internalType": "uint64",
                  "name": "totalDays",
                  "type": "uint64"
                },
                {
                  "internalType": "uint64",
                  "name": "failedDays",
                  "type": "uint64"
                },
                {
                  "internalType": "bool[]",
                  "name": "missedDays",
                  "type": "bool[]"
                },
                {
                  "internalType": "uint128",
                  "name": "lockedAmount",
                  "type": "uint128"
                }
              ],
              "internalType": "struct FlowFit.Challenge",
              "name": "",
              "type": "tuple"
            }
          ],
          "stateMutability": "view",
          "type": "function"
        },
        {
          "inputs": [],
          "name": "getCurrentDay",
          "outputs": [
            {
              "internalType": "uint64",
              "name": "",
              "type": "uint64"
            }
          ],
          "stateMutability": "view",
          "type": "function"
        },
        {
          "inputs": [
            {
              "internalType": "bytes32",
              "name": "role",
              "type": "bytes32"
            }
          ],
          "name": "getRoleAdmin",
          "outputs": [
            {
              "internalType": "bytes32",
              "name": "",
              "type": "bytes32"
            }
          ],
          "stateMutability": "view",
          "type": "function"
        },
        {
          "inputs": [
            {
              "internalType": "bytes32",
              "name": "role",
              "type": "bytes32"
            },
            {
              "internalType": "address",
              "name": "account",
              "type": "address"
            }
          ],
          "name": "grantRole",
          "outputs": [],
          "stateMutability": "nonpayable",
          "type": "function"
        },
        {
          "inputs": [
            {
              "internalType": "bytes32",
              "name": "role",
              "type": "bytes32"
            },
            {
              "internalType": "address",
              "name": "account",
              "type": "address"
            }
          ],
          "name": "hasRole",
          "outputs": [
            {
              "internalType": "bool",
              "name": "",
              "type": "bool"
            }
          ],
          "stateMutability": "view",
          "type": "function"
        },
        {
          "inputs": [
            {
              "internalType": "uint64",
              "name": "daysCount",
              "type": "uint64"
            },
            {
              "internalType": "address",
              "name": "appKey",
              "type": "address"
            }
          ],
          "name": "initiateChallenge",
          "outputs": [
            {
              "internalType": "uint256",
              "name": "",
              "type": "uint256"
            }
          ],
          "stateMutability": "payable",
          "type": "function"
        },
        {
          "inputs": [
            {
              "internalType": "address",
              "name": "verifier",
              "type": "address"
            }
          ],
          "name": "removeManager",
          "outputs": [],
          "stateMutability": "nonpayable",
          "type": "function"
        },
        {
          "inputs": [
            {
              "internalType": "bytes32",
              "name": "role",
              "type": "bytes32"
            },
            {
              "internalType": "address",
              "name": "callerConfirmation",
              "type": "address"
            }
          ],
          "name": "renounceRole",
          "outputs": [],
          "stateMutability": "nonpayable",
          "type": "function"
        },
        {
          "inputs": [
            {
              "internalType": "uint256",
              "name": "challengeId",
              "type": "uint256"
            },
            {
              "internalType": "uint64",
              "name": "dayIndex",
              "type": "uint64"
            }
          ],
          "name": "reportMissedDay",
          "outputs": [],
          "stateMutability": "nonpayable",
          "type": "function"
        },
        {
          "inputs": [
            {
              "internalType": "uint256",
              "name": "challengeId",
              "type": "uint256"
            },
            {
              "internalType": "uint64",
              "name": "dayIndex",
              "type": "uint64"
            },
            {
              "internalType": "bytes",
              "name": "signature",
              "type": "bytes"
            }
          ],
          "name": "reportMissedDayWithSignature",
          "outputs": [],
          "stateMutability": "nonpayable",
          "type": "function"
        },
        {
          "inputs": [
            {
              "internalType": "bytes32",
              "name": "role",
              "type": "bytes32"
            },
            {
              "internalType": "address",
              "name": "account",
              "type": "address"
            }
          ],
          "name": "revokeRole",
          "outputs": [],
          "stateMutability": "nonpayable",
          "type": "function"
        },
        {
          "inputs": [
            {
              "internalType": "bytes4",
              "name": "interfaceId",
              "type": "bytes4"
            }
          ],
          "name": "supportsInterface",
          "outputs": [
            {
              "internalType": "bool",
              "name": "",
              "type": "bool"
            }
          ],
          "stateMutability": "view",
          "type": "function"
        },
        {
          "inputs": [
            {
              "internalType": "address",
              "name": "to",
              "type": "address"
            },
            {
              "internalType": "uint256",
              "name": "amount",
              "type": "uint256"
            }
          ],
          "name": "withdraw",
          "outputs": [],
          "stateMutability": "nonpayable",
          "type": "function"
        },
        {
          "stateMutability": "payable",
          "type": "receive"
        }
      ],
      "evm": {
        "bytecode": {
          "linkReferences": {},
          "object": "608060405234801561001057600080fd5b506100246000801b336100f760201b60201c565b507f8b73c3c69bb8fe3d512ecc4cf759cc79239f7b179b0ffacaa9a75d522b39400f6040518060400160405280600781526020017f466c6f7746697400000000000000000000000000000000000000000000000000815250805190602001206040518060400160405280600181526020017f31000000000000000000000000000000000000000000000000000000000000008152508051906020012046306040516020016100d69594939291906102d9565b6040516020818303038152906040528051906020012060018190555061032c565b600061010983836101f460201b60201c565b6101e957600160008085815260200190815260200160002060000160008473ffffffffffffffffffffffffffffffffffffffff1673ffffffffffffffffffffffffffffffffffffffff16815260200190815260200160002060006101000a81548160ff02191690831515021790555061018661025e60201b60201c565b73ffffffffffffffffffffffffffffffffffffffff168273ffffffffffffffffffffffffffffffffffffffff16847f2f8788117e7eff1d82e926ec794901d17c78024a50270940304540a733656f0d60405160405180910390a4600190506101ee565b600090505b92915050565b600080600084815260200190815260200160002060000160008373ffffffffffffffffffffffffffffffffffffffff1673ffffffffffffffffffffffffffffffffffffffff16815260200190815260200160002060009054906101000a900460ff16905092915050565b600033905090565b6000819050919050565b61027981610266565b82525050565b6000819050919050565b6102928161027f565b82525050565b600073ffffffffffffffffffffffffffffffffffffffff82169050919050565b60006102c382610298565b9050919050565b6102d3816102b8565b82525050565b600060a0820190506102ee6000830188610270565b6102fb6020830187610270565b6103086040830186610270565b6103156060830185610289565b61032260808301846102ca565b9695505050505050565b612e8f8061033b6000396000f3fe60806040526004361061012e5760003560e01c80634a882fc3116100ab57806391d148541161006f57806391d1485414610408578063a217fddf14610445578063ac18de4314610470578063cdf6caa114610499578063d547741f146104c2578063f3fef3a3146104eb57610135565b80634a882fc31461031b578063755e55481461034657806375b238fc146103715780638f1d37761461039c5780638fe1e5f9146103df57610135565b80632f2ff15d116100f25780632f2ff15d1461024a5780633644e5151461027357806336568abe1461029e5780633e6968b6146102c7578063484dd61a146102f257610135565b806301ffc9a71461013a57806317da414d146101775780631bdd4b74146101a7578063248a9ca3146101e45780632d06177a1461022157610135565b3661013557005b600080fd5b34801561014657600080fd5b50610161600480360381019061015c9190611f77565b610514565b60405161016e9190611fbf565b60405180910390f35b610191600480360381019061018c9190612078565b61058e565b60405161019e91906120d1565b60405180910390f35b3480156101b357600080fd5b506101ce60048036038101906101c99190612118565b610841565b6040516101db91906122fc565b60405180910390f35b3480156101f057600080fd5b5061020b60048036038101906102069190612354565b610aa2565b6040516102189190612390565b60405180910390f35b34801561022d57600080fd5b50610248600480360381019061024391906123ab565b610ac1565b005b34801561025657600080fd5b50610271600480360381019061026c91906123d8565b610b1a565b005b34801561027f57600080fd5b50610288610b3c565b6040516102959190612390565b60405180910390f35b3480156102aa57600080fd5b506102c560048036038101906102c091906123d8565b610b42565b005b3480156102d357600080fd5b506102dc610bbd565b6040516102e99190612427565b60405180910390f35b3480156102fe57600080fd5b5061031960048036038101906103149190612118565b610be0565b005b34801561032757600080fd5b50610330610fc2565b60405161033d9190612390565b60405180910390f35b34801561035257600080fd5b5061035b610fe6565b6040516103689190612390565b60405180910390f35b34801561037d57600080fd5b5061038661100a565b6040516103939190612390565b60405180910390f35b3480156103a857600080fd5b506103c360048036038101906103be9190612118565b61102e565b6040516103d69796959493929190612460565b60405180910390f35b3480156103eb57600080fd5b50610406600480360381019061040191906124cf565b611125565b005b34801561041457600080fd5b5061042f600480360381019061042a91906123d8565b611313565b60405161043c9190611fbf565b60405180910390f35b34801561045157600080fd5b5061045a61137d565b6040516104679190612390565b60405180910390f35b34801561047c57600080fd5b50610497600480360381019061049291906123ab565b611384565b005b3480156104a557600080fd5b506104c060048036038101906104bb9190612574565b6113dd565b005b3480156104ce57600080fd5b506104e960048036038101906104e491906123d8565b611717565b005b3480156104f757600080fd5b50610512600480360381019061050d91906125e8565b611739565b005b60007f7965db0b000000000000000000000000000000000000000000000000000000007bffffffffffffffffffffffffffffffffffffffffffffffffffffffff1916827bffffffffffffffffffffffffffffffffffffffffffffffffffffffff19161480610587575061058682611815565b5b9050919050565b60008034116105d2576040517f08c379a00000000000000000000000000000000000000000000000000000000081526004016105c990612685565b60405180910390fd5b600060028054905090506002600181600181540180825580915050039060005260206000209050506000600282815481106106105761060f6126a5565b5b90600052602060002090600502019050338160000160006101000a81548173ffffffffffffffffffffffffffffffffffffffff021916908373ffffffffffffffffffffffffffffffffffffffff160217905550838160010160006101000a81548173ffffffffffffffffffffffffffffffffffffffff021916908373ffffffffffffffffffffffffffffffffffffffff1602179055506106ae610bbd565b8160010160156101000a81548167ffffffffffffffff021916908367ffffffffffffffff160217905550848160020160006101000a81548167ffffffffffffffff021916908367ffffffffffffffff160217905550348160040160006101000a8154816fffffffffffffffffffffffffffffffff02191690836fffffffffffffffffffffffffffffffff16021790555060008160020160086101000a81548167ffffffffffffffff021916908367ffffffffffffffff1602179055508467ffffffffffffffff1667ffffffffffffffff81111561078e5761078d6126d4565b5b6040519080825280602002602001820160405280156107bc5781602001602082028036833780820191505090505b508160030190805190602001906107d4929190611daf565b5060008160010160146101000a81548160ff021916908315150217905550813373ffffffffffffffffffffffffffffffffffffffff167f9f85484cc8fb25030d222fdcd51eb22a0f9b61069192af1dbfb3ff32b78b6d6760405160405180910390a3819250505092915050565b610849611e55565b6002828154811061085d5761085c6126a5565b5b9060005260206000209060050201604051806101000160405290816000820160009054906101000a900473ffffffffffffffffffffffffffffffffffffffff1673ffffffffffffffffffffffffffffffffffffffff1673ffffffffffffffffffffffffffffffffffffffff1681526020016001820160009054906101000a900473ffffffffffffffffffffffffffffffffffffffff1673ffffffffffffffffffffffffffffffffffffffff1673ffffffffffffffffffffffffffffffffffffffff1681526020016001820160149054906101000a900460ff161515151581526020016001820160159054906101000a900467ffffffffffffffff1667ffffffffffffffff1667ffffffffffffffff1681526020016002820160009054906101000a900467ffffffffffffffff1667ffffffffffffffff1667ffffffffffffffff1681526020016002820160089054906101000a900467ffffffffffffffff1667ffffffffffffffff1667ffffffffffffffff16815260200160038201805480602002602001604051908101604052809291908181526020018280548015610a4857602002820191906000526020600020906000905b82829054906101000a900460ff16151581526020019060010190602082600001049283019260010382029150808411610a125790505b505050505081526020016004820160009054906101000a90046fffffffffffffffffffffffffffffffff166fffffffffffffffffffffffffffffffff166fffffffffffffffffffffffffffffffff16815250509050919050565b6000806000838152602001908152602001600020600101549050919050565b7fa49807205ce4d355092ef5a8a18f56e8913cf4a201fbe287825b095693c21775610aeb8161187f565b610b157fb58436161aa98d7442ffff3af203d6031ad86e54ee571266152aa0e83a52472683611893565b505050565b610b2382610aa2565b610b2c8161187f565b610b368383611893565b50505050565b60015481565b610b4a611984565b73ffffffffffffffffffffffffffffffffffffffff168173ffffffffffffffffffffffffffffffffffffffff1614610bae576040517f6697b23200000000000000000000000000000000000000000000000000000000815260040160405180910390fd5b610bb8828261198c565b505050565b60006103e86201518042610bd19190612761565b610bdb9190612761565b905090565b600060028281548110610bf657610bf56126a5565b5b906000526020600020906005020190508060010160009054906101000a900473ffffffffffffffffffffffffffffffffffffffff1673ffffffffffffffffffffffffffffffffffffffff163373ffffffffffffffffffffffffffffffffffffffff1614610c98576040517f08c379a0000000000000000000000000000000000000000000000000000000008152600401610c8f906127de565b60405180910390fd5b8060010160149054906101000a900460ff1615610cea576040517f08c379a0000000000000000000000000000000000000000000000000000000008152600401610ce19061284a565b60405180910390fd5b8060020160009054906101000a900467ffffffffffffffff168160010160159054906101000a900467ffffffffffffffff16610d26919061286a565b67ffffffffffffffff16610d38610bbd565b67ffffffffffffffff161015610d83576040517f08c379a0000000000000000000000000000000000000000000000000000000008152600401610d7a906128f2565b60405180910390fd5b60018160010160146101000a81548160ff02191690831515021790555060008160020160009054906101000a900467ffffffffffffffff1667ffffffffffffffff168260020160089054906101000a900467ffffffffffffffff168360020160009054906101000a900467ffffffffffffffff16610e019190612912565b67ffffffffffffffff168360040160009054906101000a90046fffffffffffffffffffffffffffffffff16610e36919061294e565b610e40919061298b565b905060008260000160009054906101000a900473ffffffffffffffffffffffffffffffffffffffff1673ffffffffffffffffffffffffffffffffffffffff16826fffffffffffffffffffffffffffffffff16604051610e9e906129ed565b60006040518083038185875af1925050503d8060008114610edb576040519150601f19603f3d011682016040523d82523d6000602084013e610ee0565b606091505b5050905080610f24576040517f08c379a0000000000000000000000000000000000000000000000000000000008152600401610f1b90612a4e565b60405180910390fd5b838360000160009054906101000a900473ffffffffffffffffffffffffffffffffffffffff1673ffffffffffffffffffffffffffffffffffffffff167f4d891138aa3bf8eb092ad2bc3d9c1f34594d0247149c374df85c1aafce565dc160008660020160089054906101000a900467ffffffffffffffff1667ffffffffffffffff1614604051610fb49190611fbf565b60405180910390a350505050565b7fdc524625ee47c1307f73ca251c4ad484f67e39655f5db729c813fed3e3fb2ce281565b7fb58436161aa98d7442ffff3af203d6031ad86e54ee571266152aa0e83a52472681565b7fa49807205ce4d355092ef5a8a18f56e8913cf4a201fbe287825b095693c2177581565b6002818154811061103e57600080fd5b90600052602060002090600502016000915090508060000160009054906101000a900473ffffffffffffffffffffffffffffffffffffffff16908060010160009054906101000a900473ffffffffffffffffffffffffffffffffffffffff16908060010160149054906101000a900460ff16908060010160159054906101000a900467ffffffffffffffff16908060020160009054906101000a900467ffffffffffffffff16908060020160089054906101000a900467ffffffffffffffff16908060040160009054906101000a90046fffffffffffffffffffffffffffffffff16905087565b60006002838154811061113b5761113a6126a5565b5b906000526020600020906005020190508060010160009054906101000a900473ffffffffffffffffffffffffffffffffffffffff1673ffffffffffffffffffffffffffffffffffffffff163373ffffffffffffffffffffffffffffffffffffffff16146111dd576040517f08c379a00000000000000000000000000000000000000000000000000000000081526004016111d4906127de565b60405180910390fd5b8060010160149054906101000a900460ff161561122f576040517f08c379a000000000000000000000000000000000000000000000000000000000815260040161122690612aba565b60405180910390fd5b806003018267ffffffffffffffff168154811061124f5761124e6126a5565b5b90600052602060002090602091828204019190069054906101000a900460ff1661130e576001816003018367ffffffffffffffff1681548110611295576112946126a5565b5b90600052602060002090602091828204019190066101000a81548160ff02191690831515021790555080600201600881819054906101000a900467ffffffffffffffff16809291906112e690612ada565b91906101000a81548167ffffffffffffffff021916908367ffffffffffffffff160217905550505b505050565b600080600084815260200190815260200160002060000160008373ffffffffffffffffffffffffffffffffffffffff1673ffffffffffffffffffffffffffffffffffffffff16815260200190815260200160002060009054906101000a900460ff16905092915050565b6000801b81565b7fa49807205ce4d355092ef5a8a18f56e8913cf4a201fbe287825b095693c217756113ae8161187f565b6113d87fb58436161aa98d7442ffff3af203d6031ad86e54ee571266152aa0e83a5247268361198c565b505050565b6000600285815481106113f3576113f26126a5565b5b906000526020600020906005020190508060010160149054906101000a900460ff1615611455576040517f08c379a000000000000000000000000000000000000000000000000000000000815260040161144c90612b56565b60405180910390fd5b8060020160009054906101000a900467ffffffffffffffff1667ffffffffffffffff168467ffffffffffffffff16106114c3576040517f08c379a00000000000000000000000000000000000000000000000000000000081526004016114ba90612bc2565b60405180910390fd5b60007fdc524625ee47c1307f73ca251c4ad484f67e39655f5db729c813fed3e3fb2ce286866040516020016114fa93929190612be2565b604051602081830303815290604052805190602001209050600060015482604051602001611529929190612c91565b604051602081830303815290604052805190602001209050600061159a86868080601f016020809104026020016040519081016040528093929190818152602001838380828437600081840152601f19601f8201169050808301925050505050505083611a7e90919063ffffffff16565b90508360010160009054906101000a900473ffffffffffffffffffffffffffffffffffffffff1673ffffffffffffffffffffffffffffffffffffffff168173ffffffffffffffffffffffffffffffffffffffff161461162e576040517f08c379a000000000000000000000000000000000000000000000000000000000815260040161162590612d14565b60405180910390fd5b836003018767ffffffffffffffff168154811061164e5761164d6126a5565b5b90600052602060002090602091828204019190069054906101000a900460ff1661170d576001846003018867ffffffffffffffff1681548110611694576116936126a5565b5b90600052602060002090602091828204019190066101000a81548160ff02191690831515021790555083600201600881819054906101000a900467ffffffffffffffff16809291906116e590612ada565b91906101000a81548167ffffffffffffffff021916908367ffffffffffffffff160217905550505b5050505050505050565b61172082610aa2565b6117298161187f565b611733838361198c565b50505050565b7fb58436161aa98d7442ffff3af203d6031ad86e54ee571266152aa0e83a5247266117638161187f565b60008373ffffffffffffffffffffffffffffffffffffffff1683604051611789906129ed565b60006040518083038185875af1925050503d80600081146117c6576040519150601f19603f3d011682016040523d82523d6000602084013e6117cb565b606091505b505090508061180f576040517f08c379a000000000000000000000000000000000000000000000000000000000815260040161180690612d80565b60405180910390fd5b50505050565b60007f01ffc9a7000000000000000000000000000000000000000000000000000000007bffffffffffffffffffffffffffffffffffffffffffffffffffffffff1916827bffffffffffffffffffffffffffffffffffffffffffffffffffffffff1916149050919050565b6118908161188b611984565b611aaa565b50565b600061189f8383611313565b61197957600160008085815260200190815260200160002060000160008473ffffffffffffffffffffffffffffffffffffffff1673ffffffffffffffffffffffffffffffffffffffff16815260200190815260200160002060006101000a81548160ff021916908315150217905550611916611984565b73ffffffffffffffffffffffffffffffffffffffff168273ffffffffffffffffffffffffffffffffffffffff16847f2f8788117e7eff1d82e926ec794901d17c78024a50270940304540a733656f0d60405160405180910390a46001905061197e565b600090505b92915050565b600033905090565b60006119988383611313565b15611a7357600080600085815260200190815260200160002060000160008473ffffffffffffffffffffffffffffffffffffffff1673ffffffffffffffffffffffffffffffffffffffff16815260200190815260200160002060006101000a81548160ff021916908315150217905550611a10611984565b73ffffffffffffffffffffffffffffffffffffffff168273ffffffffffffffffffffffffffffffffffffffff16847ff6391f5c32d9c69d2a47ea670b442974b53935d1edc7fd64eb21e047a839171b60405160405180910390a460019050611a78565b600090505b92915050565b600080600080611a8e8686611afb565b925092509250611a9e8282611b57565b82935050505092915050565b611ab48282611313565b611af75780826040517fe2517d3f000000000000000000000000000000000000000000000000000000008152600401611aee929190612da0565b60405180910390fd5b5050565b60008060006041845103611b405760008060006020870151925060408701519150606087015160001a9050611b3288828585611cbb565b955095509550505050611b50565b60006002855160001b9250925092505b9250925092565b60006003811115611b6b57611b6a612dc9565b5b826003811115611b7e57611b7d612dc9565b5b0315611cb75760016003811115611b9857611b97612dc9565b5b826003811115611bab57611baa612dc9565b5b03611be2576040517ff645eedf00000000000000000000000000000000000000000000000000000000815260040160405180910390fd5b60026003811115611bf657611bf5612dc9565b5b826003811115611c0957611c08612dc9565b5b03611c4e578060001c6040517ffce698f7000000000000000000000000000000000000000000000000000000008152600401611c4591906120d1565b60405180910390fd5b600380811115611c6157611c60612dc9565b5b826003811115611c7457611c73612dc9565b5b03611cb657806040517fd78bce0c000000000000000000000000000000000000000000000000000000008152600401611cad9190612390565b60405180910390fd5b5b5050565b60008060007f7fffffffffffffffffffffffffffffff5d576e7357a4501ddfe92f46681b20a08460001c1115611cfb576000600385925092509250611da5565b600060018888888860405160008152602001604052604051611d209493929190612e14565b6020604051602081039080840390855afa158015611d42573d6000803e3d6000fd5b505050602060405103519050600073ffffffffffffffffffffffffffffffffffffffff168173ffffffffffffffffffffffffffffffffffffffff1603611d9657600060016000801b93509350935050611da5565b8060008060001b935093509350505b9450945094915050565b82805482825590600052602060002090601f01602090048101928215611e445791602002820160005b83821115611e1557835183826101000a81548160ff0219169083151502179055509260200192600101602081600001049283019260010302611dd8565b8015611e425782816101000a81549060ff0219169055600101602081600001049283019260010302611e15565b505b509050611e519190611ef8565b5090565b604051806101000160405280600073ffffffffffffffffffffffffffffffffffffffff168152602001600073ffffffffffffffffffffffffffffffffffffffff168152602001600015158152602001600067ffffffffffffffff168152602001600067ffffffffffffffff168152602001600067ffffffffffffffff1681526020016060815260200160006fffffffffffffffffffffffffffffffff1681525090565b5b80821115611f11576000816000905550600101611ef9565b5090565b600080fd5b600080fd5b60007fffffffff0000000000000000000000000000000000000000000000000000000082169050919050565b611f5481611f1f565b8114611f5f57600080fd5b50565b600081359050611f7181611f4b565b92915050565b600060208284031215611f8d57611f8c611f15565b5b6000611f9b84828501611f62565b91505092915050565b60008115159050919050565b611fb981611fa4565b82525050565b6000602082019050611fd46000830184611fb0565b92915050565b600067ffffffffffffffff82169050919050565b611ff781611fda565b811461200257600080fd5b50565b60008135905061201481611fee565b92915050565b600073ffffffffffffffffffffffffffffffffffffffff82169050919050565b60006120458261201a565b9050919050565b6120558161203a565b811461206057600080fd5b50565b6000813590506120728161204c565b92915050565b6000806040838503121561208f5761208e611f15565b5b600061209d85828601612005565b92505060206120ae85828601612063565b9150509250929050565b6000819050919050565b6120cb816120b8565b82525050565b60006020820190506120e660008301846120c2565b92915050565b6120f5816120b8565b811461210057600080fd5b50565b600081359050612112816120ec565b92915050565b60006020828403121561212e5761212d611f15565b5b600061213c84828501612103565b91505092915050565b61214e8161203a565b82525050565b61215d81611fa4565b82525050565b61216c81611fda565b82525050565b600081519050919050565b600082825260208201905092915050565b6000819050602082019050919050565b60006121aa8383612154565b60208301905092915050565b6000602082019050919050565b60006121ce82612172565b6121d8818561217d565b93506121e38361218e565b8060005b838110156122145781516121fb888261219e565b9750612206836121b6565b9250506001810190506121e7565b5085935050505092915050565b60006fffffffffffffffffffffffffffffffff82169050919050565b61224681612221565b82525050565b6000610100830160008301516122656000860182612145565b5060208301516122786020860182612145565b50604083015161228b6040860182612154565b50606083015161229e6060860182612163565b5060808301516122b16080860182612163565b5060a08301516122c460a0860182612163565b5060c083015184820360c08601526122dc82826121c3565b91505060e08301516122f160e086018261223d565b508091505092915050565b60006020820190508181036000830152612316818461224c565b905092915050565b6000819050919050565b6123318161231e565b811461233c57600080fd5b50565b60008135905061234e81612328565b92915050565b60006020828403121561236a57612369611f15565b5b60006123788482850161233f565b91505092915050565b61238a8161231e565b82525050565b60006020820190506123a56000830184612381565b92915050565b6000602082840312156123c1576123c0611f15565b5b60006123cf84828501612063565b91505092915050565b600080604083850312156123ef576123ee611f15565b5b60006123fd8582860161233f565b925050602061240e85828601612063565b9150509250929050565b61242181611fda565b82525050565b600060208201905061243c6000830184612418565b92915050565b61244b8161203a565b82525050565b61245a81612221565b82525050565b600060e082019050612475600083018a612442565b6124826020830189612442565b61248f6040830188611fb0565b61249c6060830187612418565b6124a96080830186612418565b6124b660a0830185612418565b6124c360c0830184612451565b98975050505050505050565b600080604083850312156124e6576124e5611f15565b5b60006124f485828601612103565b925050602061250585828601612005565b9150509250929050565b600080fd5b600080fd5b600080fd5b60008083601f8401126125345761253361250f565b5b8235905067ffffffffffffffff81111561255157612550612514565b5b60208301915083600182028301111561256d5761256c612519565b5b9250929050565b6000806000806060858703121561258e5761258d611f15565b5b600061259c87828801612103565b94505060206125ad87828801612005565b935050604085013567ffffffffffffffff8111156125ce576125cd611f1a565b5b6125da8782880161251e565b925092505092959194509250565b600080604083850312156125ff576125fe611f15565b5b600061260d85828601612063565b925050602061261e85828601612103565b9150509250929050565b600082825260208201905092915050565b7f4465706f73697420726571756972656400000000000000000000000000000000600082015250565b600061266f601083612628565b915061267a82612639565b602082019050919050565b6000602082019050818103600083015261269e81612662565b9050919050565b7f4e487b7100000000000000000000000000000000000000000000000000000000600052603260045260246000fd5b7f4e487b7100000000000000000000000000000000000000000000000000000000600052604160045260246000fd5b7f4e487b7100000000000000000000000000000000000000000000000000000000600052601260045260246000fd5b7f4e487b7100000000000000000000000000000000000000000000000000000000600052601160045260246000fd5b600061276c82611fda565b915061277783611fda565b92508261278757612786612703565b5b828204905092915050565b7f4e6f7420617574686f72697a6564000000000000000000000000000000000000600082015250565b60006127c8600e83612628565b91506127d382612792565b602082019050919050565b600060208201905081810360008301526127f7816127bb565b9050919050565b7f416c72656164792066696e616c697a6564000000000000000000000000000000600082015250565b6000612834601183612628565b915061283f826127fe565b602082019050919050565b6000602082019050818103600083015261286381612827565b9050919050565b600061287582611fda565b915061288083611fda565b9250828201905067ffffffffffffffff8111156128a05761289f612732565b5b92915050565b7f4368616c6c656e6765206f6e676f696e67000000000000000000000000000000600082015250565b60006128dc601183612628565b91506128e7826128a6565b602082019050919050565b6000602082019050818103600083015261290b816128cf565b9050919050565b600061291d82611fda565b915061292883611fda565b9250828203905067ffffffffffffffff81111561294857612947612732565b5b92915050565b600061295982612221565b915061296483612221565b925082820261297281612221565b915080821461298457612983612732565b5b5092915050565b600061299682612221565b91506129a183612221565b9250826129b1576129b0612703565b5b828204905092915050565b600081905092915050565b50565b60006129d76000836129bc565b91506129e2826129c7565b600082019050919050565b60006129f8826129ca565b9150819050919050565b7f526566756e64206661696c656400000000000000000000000000000000000000600082015250565b6000612a38600d83612628565b9150612a4382612a02565b602082019050919050565b60006020820190508181036000830152612a6781612a2b565b9050919050565b7f4368616c6c656e676520656e6465640000000000000000000000000000000000600082015250565b6000612aa4600f83612628565b9150612aaf82612a6e565b602082019050919050565b60006020820190508181036000830152612ad381612a97565b9050919050565b6000612ae582611fda565b915067ffffffffffffffff8203612aff57612afe612732565b5b600182019050919050565b7f4368616c6c656e67652066696e616c697a656400000000000000000000000000600082015250565b6000612b40601383612628565b9150612b4b82612b0a565b602082019050919050565b60006020820190508181036000830152612b6f81612b33565b9050919050565b7f496e76616c69642064617920696e646578000000000000000000000000000000600082015250565b6000612bac601183612628565b9150612bb782612b76565b602082019050919050565b60006020820190508181036000830152612bdb81612b9f565b9050919050565b6000606082019050612bf76000830186612381565b612c0460208301856120c2565b612c116040830184612418565b949350505050565b600081905092915050565b7f1901000000000000000000000000000000000000000000000000000000000000600082015250565b6000612c5a600283612c19565b9150612c6582612c24565b600282019050919050565b6000819050919050565b612c8b612c868261231e565b612c70565b82525050565b6000612c9c82612c4d565b9150612ca88285612c7a565b602082019150612cb88284612c7a565b6020820191508190509392505050565b7f496e76616c6964207369676e6174757265000000000000000000000000000000600082015250565b6000612cfe601183612628565b9150612d0982612cc8565b602082019050919050565b60006020820190508181036000830152612d2d81612cf1565b9050919050565b7f5769746864726177206661696c65640000000000000000000000000000000000600082015250565b6000612d6a600f83612628565b9150612d7582612d34565b602082019050919050565b60006020820190508181036000830152612d9981612d5d565b9050919050565b6000604082019050612db56000830185612442565b612dc26020830184612381565b9392505050565b7f4e487b7100000000000000000000000000000000000000000000000000000000600052602160045260246000fd5b600060ff82169050919050565b612e0e81612df8565b82525050565b6000608082019050612e296000830187612381565b612e366020830186612e05565b612e436040830185612381565b612e506060830184612381565b9594505050505056fea264697066735822122016a86e6884d1f62b16f59ea3b2135f352070ccc894e802457262e4b72f1bb17964736f6c634300081c0033",
          "opcodes": "PUSH1 0x80 PUSH1 0x40 MSTORE CALLVALUE DUP1 ISZERO PUSH2 0x10 JUMPI PUSH1 0x0 DUP1 REVERT JUMPDEST POP PUSH2 0x24 PUSH1 0x0 DUP1 SHL CALLER PUSH2 0xF7 PUSH1 0x20 SHL PUSH1 0x20 SHR JUMP JUMPDEST POP PUSH32 0x8B73C3C69BB8FE3D512ECC4CF759CC79239F7B179B0FFACAA9A75D522B39400F PUSH1 0x40 MLOAD DUP1 PUSH1 0x40 ADD PUSH1 0x40 MSTORE DUP1 PUSH1 0x7 DUP2 MSTORE PUSH1 0x20 ADD PUSH32 0x466C6F7746697400000000000000000000000000000000000000000000000000 DUP2 MSTORE POP DUP1 MLOAD SWAP1 PUSH1 0x20 ADD KECCAK256 PUSH1 0x40 MLOAD DUP1 PUSH1 0x40 ADD PUSH1 0x40 MSTORE DUP1 PUSH1 0x1 DUP2 MSTORE PUSH1 0x20 ADD PUSH32 0x3100000000000000000000000000000000000000000000000000000000000000 DUP2 MSTORE POP DUP1 MLOAD SWAP1 PUSH1 0x20 ADD KECCAK256 CHAINID ADDRESS PUSH1 0x40 MLOAD PUSH1 0x20 ADD PUSH2 0xD6 SWAP6 SWAP5 SWAP4 SWAP3 SWAP2 SWAP1 PUSH2 0x2D9 JUMP JUMPDEST PUSH1 0x40 MLOAD PUSH1 0x20 DUP2 DUP4 SUB SUB DUP2 MSTORE SWAP1 PUSH1 0x40 MSTORE DUP1 MLOAD SWAP1 PUSH1 0x20 ADD KECCAK256 PUSH1 0x1 DUP2 SWAP1 SSTORE POP PUSH2 0x32C JUMP JUMPDEST PUSH1 0x0 PUSH2 0x109 DUP4 DUP4 PUSH2 0x1F4 PUSH1 0x20 SHL PUSH1 0x20 SHR JUMP JUMPDEST PUSH2 0x1E9 JUMPI PUSH1 0x1 PUSH1 0x0 DUP1 DUP6 DUP2 MSTORE PUSH1 0x20 ADD SWAP1 DUP2 MSTORE PUSH1 0x20 ADD PUSH1 0x0 KECCAK256 PUSH1 0x0 ADD PUSH1 0x0 DUP5 PUSH20 0xFFFFFFFFFFFFFFFFFFFFFFFFFFFFFFFFFFFFFFFF AND PUSH20 0xFFFFFFFFFFFFFFFFFFFFFFFFFFFFFFFFFFFFFFFF AND DUP2 MSTORE PUSH1 0x20 ADD SWAP1 DUP2 MSTORE PUSH1 0x20 ADD PUSH1 0x0 KECCAK256 PUSH1 0x0 PUSH2 0x100 EXP DUP2 SLOAD DUP2 PUSH1 0xFF MUL NOT AND SWAP1 DUP4 ISZERO ISZERO MUL OR SWAP1 SSTORE POP PUSH2 0x186 PUSH2 0x25E PUSH1 0x20 SHL PUSH1 0x20 SHR JUMP JUMPDEST PUSH20 0xFFFFFFFFFFFFFFFFFFFFFFFFFFFFFFFFFFFFFFFF AND DUP3 PUSH20 0xFFFFFFFFFFFFFFFFFFFFFFFFFFFFFFFFFFFFFFFF AND DUP5 PUSH32 0x2F8788117E7EFF1D82E926EC794901D17C78024A50270940304540A733656F0D PUSH1 0x40 MLOAD PUSH1 0x40 MLOAD DUP1 SWAP2 SUB SWAP1 LOG4 PUSH1 0x1 SWAP1 POP PUSH2 0x1EE JUMP JUMPDEST PUSH1 0x0 SWAP1 POP JUMPDEST SWAP3 SWAP2 POP POP JUMP JUMPDEST PUSH1 0x0 DUP1 PUSH1 0x0 DUP5 DUP2 MSTORE PUSH1 0x20 ADD SWAP1 DUP2 MSTORE PUSH1 0x20 ADD PUSH1 0x0 KECCAK256 PUSH1 0x0 ADD PUSH1 0x0 DUP4 PUSH20 0xFFFFFFFFFFFFFFFFFFFFFFFFFFFFFFFFFFFFFFFF AND PUSH20 0xFFFFFFFFFFFFFFFFFFFFFFFFFFFFFFFFFFFFFFFF AND DUP2 MSTORE PUSH1 0x20 ADD SWAP1 DUP2 MSTORE PUSH1 0x20 ADD PUSH1 0x0 KECCAK256 PUSH1 0x0 SWAP1 SLOAD SWAP1 PUSH2 0x100 EXP SWAP1 DIV PUSH1 0xFF AND SWAP1 POP SWAP3 SWAP2 POP POP JUMP JUMPDEST PUSH1 0x0 CALLER SWAP1 POP SWAP1 JUMP JUMPDEST PUSH1 0x0 DUP2 SWAP1 POP SWAP2 SWAP1 POP JUMP JUMPDEST PUSH2 0x279 DUP2 PUSH2 0x266 JUMP JUMPDEST DUP3 MSTORE POP POP JUMP JUMPDEST PUSH1 0x0 DUP2 SWAP1 POP SWAP2 SWAP1 POP JUMP JUMPDEST PUSH2 0x292 DUP2 PUSH2 0x27F JUMP JUMPDEST DUP3 MSTORE POP POP JUMP JUMPDEST PUSH1 0x0 PUSH20 0xFFFFFFFFFFFFFFFFFFFFFFFFFFFFFFFFFFFFFFFF DUP3 AND SWAP1 POP SWAP2 SWAP1 POP JUMP JUMPDEST PUSH1 0x0 PUSH2 0x2C3 DUP3 PUSH2 0x298 JUMP JUMPDEST SWAP1 POP SWAP2 SWAP1 POP JUMP JUMPDEST PUSH2 0x2D3 DUP2 PUSH2 0x2B8 JUMP JUMPDEST DUP3 MSTORE POP POP JUMP JUMPDEST PUSH1 0x0 PUSH1 0xA0 DUP3 ADD SWAP1 POP PUSH2 0x2EE PUSH1 0x0 DUP4 ADD DUP9 PUSH2 0x270 JUMP JUMPDEST PUSH2 0x2FB PUSH1 0x20 DUP4 ADD DUP8 PUSH2 0x270 JUMP JUMPDEST PUSH2 0x308 PUSH1 0x40 DUP4 ADD DUP7 PUSH2 0x270 JUMP JUMPDEST PUSH2 0x315 PUSH1 0x60 DUP4 ADD DUP6 PUSH2 0x289 JUMP JUMPDEST PUSH2 0x322 PUSH1 0x80 DUP4 ADD DUP5 PUSH2 0x2CA JUMP JUMPDEST SWAP7 SWAP6 POP POP POP POP POP POP JUMP JUMPDEST PUSH2 0x2E8F DUP1 PUSH2 0x33B PUSH1 0x0 CODECOPY PUSH1 0x0 RETURN INVALID PUSH1 0x80 PUSH1 0x40 MSTORE PUSH1 0x4 CALLDATASIZE LT PUSH2 0x12E JUMPI PUSH1 0x0 CALLDATALOAD PUSH1 0xE0 SHR DUP1 PUSH4 0x4A882FC3 GT PUSH2 0xAB JUMPI DUP1 PUSH4 0x91D14854 GT PUSH2 0x6F JUMPI DUP1 PUSH4 0x91D14854 EQ PUSH2 0x408 JUMPI DUP1 PUSH4 0xA217FDDF EQ PUSH2 0x445 JUMPI DUP1 PUSH4 0xAC18DE43 EQ PUSH2 0x470 JUMPI DUP1 PUSH4 0xCDF6CAA1 EQ PUSH2 0x499 JUMPI DUP1 PUSH4 0xD547741F EQ PUSH2 0x4C2 JUMPI DUP1 PUSH4 0xF3FEF3A3 EQ PUSH2 0x4EB JUMPI PUSH2 0x135 JUMP JUMPDEST DUP1 PUSH4 0x4A882FC3 EQ PUSH2 0x31B JUMPI DUP1 PUSH4 0x755E5548 EQ PUSH2 0x346 JUMPI DUP1 PUSH4 0x75B238FC EQ PUSH2 0x371 JUMPI DUP1 PUSH4 0x8F1D3776 EQ PUSH2 0x39C JUMPI DUP1 PUSH4 0x8FE1E5F9 EQ PUSH2 0x3DF JUMPI PUSH2 0x135 JUMP JUMPDEST DUP1 PUSH4 0x2F2FF15D GT PUSH2 0xF2 JUMPI DUP1 PUSH4 0x2F2FF15D EQ PUSH2 0x24A JUMPI DUP1 PUSH4 0x3644E515 EQ PUSH2 0x273 JUMPI DUP1 PUSH4 0x36568ABE EQ PUSH2 0x29E JUMPI DUP1 PUSH4 0x3E6968B6 EQ PUSH2 0x2C7 JUMPI DUP1 PUSH4 0x484DD61A EQ PUSH2 0x2F2 JUMPI PUSH2 0x135 JUMP JUMPDEST DUP1 PUSH4 0x1FFC9A7 EQ PUSH2 0x13A JUMPI DUP1 PUSH4 0x17DA414D EQ PUSH2 0x177 JUMPI DUP1 PUSH4 0x1BDD4B74 EQ PUSH2 0x1A7 JUMPI DUP1 PUSH4 0x248A9CA3 EQ PUSH2 0x1E4 JUMPI DUP1 PUSH4 0x2D06177A EQ PUSH2 0x221 JUMPI PUSH2 0x135 JUMP JUMPDEST CALLDATASIZE PUSH2 0x135 JUMPI STOP JUMPDEST PUSH1 0x0 DUP1 REVERT JUMPDEST CALLVALUE DUP1 ISZERO PUSH2 0x146 JUMPI PUSH1 0x0 DUP1 REVERT JUMPDEST POP PUSH2 0x161 PUSH1 0x4 DUP1 CALLDATASIZE SUB DUP2 ADD SWAP1 PUSH2 0x15C SWAP2 SWAP1 PUSH2 0x1F77 JUMP JUMPDEST PUSH2 0x514 JUMP JUMPDEST PUSH1 0x40 MLOAD PUSH2 0x16E SWAP2 SWAP1 PUSH2 0x1FBF JUMP JUMPDEST PUSH1 0x40 MLOAD DUP1 SWAP2 SUB SWAP1 RETURN JUMPDEST PUSH2 0x191 PUSH1 0x4 DUP1 CALLDATASIZE SUB DUP2 ADD SWAP1 PUSH2 0x18C SWAP2 SWAP1 PUSH2 0x2078 JUMP JUMPDEST PUSH2 0x58E JUMP JUMPDEST PUSH1 0x40 MLOAD PUSH2 0x19E SWAP2 SWAP1 PUSH2 0x20D1 JUMP JUMPDEST PUSH1 0x40 MLOAD DUP1 SWAP2 SUB SWAP1 RETURN JUMPDEST CALLVALUE DUP1 ISZERO PUSH2 0x1B3 JUMPI PUSH1 0x0 DUP1 REVERT JUMPDEST POP PUSH2 0x1CE PUSH1 0x4 DUP1 CALLDATASIZE SUB DUP2 ADD SWAP1 PUSH2 0x1C9 SWAP2 SWAP1 PUSH2 0x2118 JUMP JUMPDEST PUSH2 0x841 JUMP JUMPDEST PUSH1 0x40 MLOAD PUSH2 0x1DB SWAP2 SWAP1 PUSH2 0x22FC JUMP JUMPDEST PUSH1 0x40 MLOAD DUP1 SWAP2 SUB SWAP1 RETURN JUMPDEST CALLVALUE DUP1 ISZERO PUSH2 0x1F0 JUMPI PUSH1 0x0 DUP1 REVERT JUMPDEST POP PUSH2 0x20B PUSH1 0x4 DUP1 CALLDATASIZE SUB DUP2 ADD SWAP1 PUSH2 0x206 SWAP2 SWAP1 PUSH2 0x2354 JUMP JUMPDEST PUSH2 0xAA2 JUMP JUMPDEST PUSH1 0x40 MLOAD PUSH2 0x218 SWAP2 SWAP1 PUSH2 0x2390 JUMP JUMPDEST PUSH1 0x40 MLOAD DUP1 SWAP2 SUB SWAP1 RETURN JUMPDEST CALLVALUE DUP1 ISZERO PUSH2 0x22D JUMPI PUSH1 0x0 DUP1 REVERT JUMPDEST POP PUSH2 0x248 PUSH1 0x4 DUP1 CALLDATASIZE SUB DUP2 ADD SWAP1 PUSH2 0x243 SWAP2 SWAP1 PUSH2 0x23AB JUMP JUMPDEST PUSH2 0xAC1 JUMP JUMPDEST STOP JUMPDEST CALLVALUE DUP1 ISZERO PUSH2 0x256 JUMPI PUSH1 0x0 DUP1 REVERT JUMPDEST POP PUSH2 0x271 PUSH1 0x4 DUP1 CALLDATASIZE SUB DUP2 ADD SWAP1 PUSH2 0x26C SWAP2 SWAP1 PUSH2 0x23D8 JUMP JUMPDEST PUSH2 0xB1A JUMP JUMPDEST STOP JUMPDEST CALLVALUE DUP1 ISZERO PUSH2 0x27F JUMPI PUSH1 0x0 DUP1 REVERT JUMPDEST POP PUSH2 0x288 PUSH2 0xB3C JUMP JUMPDEST PUSH1 0x40 MLOAD PUSH2 0x295 SWAP2 SWAP1 PUSH2 0x2390 JUMP JUMPDEST PUSH1 0x40 MLOAD DUP1 SWAP2 SUB SWAP1 RETURN JUMPDEST CALLVALUE DUP1 ISZERO PUSH2 0x2AA JUMPI PUSH1 0x0 DUP1 REVERT JUMPDEST POP PUSH2 0x2C5 PUSH1 0x4 DUP1 CALLDATASIZE SUB DUP2 ADD SWAP1 PUSH2 0x2C0 SWAP2 SWAP1 PUSH2 0x23D8 JUMP JUMPDEST PUSH2 0xB42 JUMP JUMPDEST STOP JUMPDEST CALLVALUE DUP1 ISZERO PUSH2 0x2D3 JUMPI PUSH1 0x0 DUP1 REVERT JUMPDEST POP PUSH2 0x2DC PUSH2 0xBBD JUMP JUMPDEST PUSH1 0x40 MLOAD PUSH2 0x2E9 SWAP2 SWAP1 PUSH2 0x2427 JUMP JUMPDEST PUSH1 0x40 MLOAD DUP1 SWAP2 SUB SWAP1 RETURN JUMPDEST CALLVALUE DUP1 ISZERO PUSH2 0x2FE JUMPI PUSH1 0x0 DUP1 REVERT JUMPDEST POP PUSH2 0x319 PUSH1 0x4 DUP1 CALLDATASIZE SUB DUP2 ADD SWAP1 PUSH2 0x314 SWAP2 SWAP1 PUSH2 0x2118 JUMP JUMPDEST PUSH2 0xBE0 JUMP JUMPDEST STOP JUMPDEST CALLVALUE DUP1 ISZERO PUSH2 0x327 JUMPI PUSH1 0x0 DUP1 REVERT JUMPDEST POP PUSH2 0x330 PUSH2 0xFC2 JUMP JUMPDEST PUSH1 0x40 MLOAD PUSH2 0x33D SWAP2 SWAP1 PUSH2 0x2390 JUMP JUMPDEST PUSH1 0x40 MLOAD DUP1 SWAP2 SUB SWAP1 RETURN JUMPDEST CALLVALUE DUP1 ISZERO PUSH2 0x352 JUMPI PUSH1 0x0 DUP1 REVERT JUMPDEST POP PUSH2 0x35B PUSH2 0xFE6 JUMP JUMPDEST PUSH1 0x40 MLOAD PUSH2 0x368 SWAP2 SWAP1 PUSH2 0x2390 JUMP JUMPDEST PUSH1 0x40 MLOAD DUP1 SWAP2 SUB SWAP1 RETURN JUMPDEST CALLVALUE DUP1 ISZERO PUSH2 0x37D JUMPI PUSH1 0x0 DUP1 REVERT JUMPDEST POP PUSH2 0x386 PUSH2 0x100A JUMP JUMPDEST PUSH1 0x40 MLOAD PUSH2 0x393 SWAP2 SWAP1 PUSH2 0x2390 JUMP JUMPDEST PUSH1 0x40 MLOAD DUP1 SWAP2 SUB SWAP1 RETURN JUMPDEST CALLVALUE DUP1 ISZERO PUSH2 0x3A8 JUMPI PUSH1 0x0 DUP1 REVERT JUMPDEST POP PUSH2 0x3C3 PUSH1 0x4 DUP1 CALLDATASIZE SUB DUP2 ADD SWAP1 PUSH2 0x3BE SWAP2 SWAP1 PUSH2 0x2118 JUMP JUMPDEST PUSH2 0x102E JUMP JUMPDEST PUSH1 0x40 MLOAD PUSH2 0x3D6 SWAP8 SWAP7 SWAP6 SWAP5 SWAP4 SWAP3 SWAP2 SWAP1 PUSH2 0x2460 JUMP JUMPDEST PUSH1 0x40 MLOAD DUP1 SWAP2 SUB SWAP1 RETURN JUMPDEST CALLVALUE DUP1 ISZERO PUSH2 0x3EB JUMPI PUSH1 0x0 DUP1 REVERT JUMPDEST POP PUSH2 0x406 PUSH1 0x4 DUP1 CALLDATASIZE SUB DUP2 ADD SWAP1 PUSH2 0x401 SWAP2 SWAP1 PUSH2 0x24CF JUMP JUMPDEST PUSH2 0x1125 JUMP JUMPDEST STOP JUMPDEST CALLVALUE DUP1 ISZERO PUSH2 0x414 JUMPI PUSH1 0x0 DUP1 REVERT JUMPDEST POP PUSH2 0x42F PUSH1 0x4 DUP1 CALLDATASIZE SUB DUP2 ADD SWAP1 PUSH2 0x42A SWAP2 SWAP1 PUSH2 0x23D8 JUMP JUMPDEST PUSH2 0x1313 JUMP JUMPDEST PUSH1 0x40 MLOAD PUSH2 0x43C SWAP2 SWAP1 PUSH2 0x1FBF JUMP JUMPDEST PUSH1 0x40 MLOAD DUP1 SWAP2 SUB SWAP1 RETURN JUMPDEST CALLVALUE DUP1 ISZERO PUSH2 0x451 JUMPI PUSH1 0x0 DUP1 REVERT JUMPDEST POP PUSH2 0x45A PUSH2 0x137D JUMP JUMPDEST PUSH1 0x40 MLOAD PUSH2 0x467 SWAP2 SWAP1 PUSH2 0x2390 JUMP JUMPDEST PUSH1 0x40 MLOAD DUP1 SWAP2 SUB SWAP1 RETURN JUMPDEST CALLVALUE DUP1 ISZERO PUSH2 0x47C JUMPI PUSH1 0x0 DUP1 REVERT JUMPDEST POP PUSH2 0x497 PUSH1 0x4 DUP1 CALLDATASIZE SUB DUP2 ADD SWAP1 PUSH2 0x492 SWAP2 SWAP1 PUSH2 0x23AB JUMP JUMPDEST PUSH2 0x1384 JUMP JUMPDEST STOP JUMPDEST CALLVALUE DUP1 ISZERO PUSH2 0x4A5 JUMPI PUSH1 0x0 DUP1 REVERT JUMPDEST POP PUSH2 0x4C0 PUSH1 0x4 DUP1 CALLDATASIZE SUB DUP2 ADD SWAP1 PUSH2 0x4BB SWAP2 SWAP1 PUSH2 0x2574 JUMP JUMPDEST PUSH2 0x13DD JUMP JUMPDEST STOP JUMPDEST CALLVALUE DUP1 ISZERO PUSH2 0x4CE JUMPI PUSH1 0x0 DUP1 REVERT JUMPDEST POP PUSH2 0x4E9 PUSH1 0x4 DUP1 CALLDATASIZE SUB DUP2 ADD SWAP1 PUSH2 0x4E4 SWAP2 SWAP1 PUSH2 0x23D8 JUMP JUMPDEST PUSH2 0x1717 JUMP JUMPDEST STOP JUMPDEST CALLVALUE DUP1 ISZERO PUSH2 0x4F7 JUMPI PUSH1 0x0 DUP1 REVERT JUMPDEST POP PUSH2 0x512 PUSH1 0x4 DUP1 CALLDATASIZE SUB DUP2 ADD SWAP1 PUSH2 0x50D SWAP2 SWAP1 PUSH2 0x25E8 JUMP JUMPDEST PUSH2 0x1739 JUMP JUMPDEST STOP JUMPDEST PUSH1 0x0 PUSH32 0x7965DB0B00000000000000000000000000000000000000000000000000000000 PUSH28 0xFFFFFFFFFFFFFFFFFFFFFFFFFFFFFFFFFFFFFFFFFFFFFFFFFFFFFFFF NOT AND DUP3 PUSH28 0xFFFFFFFFFFFFFFFFFFFFFFFFFFFFFFFFFFFFFFFFFFFFFFFFFFFFFFFF NOT AND EQ DUP1 PUSH2 0x587 JUMPI POP PUSH2 0x586 DUP3 PUSH2 0x1815 JUMP JUMPDEST JUMPDEST SWAP1 POP SWAP2 SWAP1 POP JUMP JUMPDEST PUSH1 0x0 DUP1 CALLVALUE GT PUSH2 0x5D2 JUMPI PUSH1 0x40 MLOAD PUSH32 0x8C379A000000000000000000000000000000000000000000000000000000000 DUP2 MSTORE PUSH1 0x4 ADD PUSH2 0x5C9 SWAP1 PUSH2 0x2685 JUMP JUMPDEST PUSH1 0x40 MLOAD DUP1 SWAP2 SUB SWAP1 REVERT JUMPDEST PUSH1 0x0 PUSH1 0x2 DUP1 SLOAD SWAP1 POP SWAP1 POP PUSH1 0x2 PUSH1 0x1 DUP2 PUSH1 0x1 DUP2 SLOAD ADD DUP1 DUP3 SSTORE DUP1 SWAP2 POP POP SUB SWAP1 PUSH1 0x0 MSTORE PUSH1 0x20 PUSH1 0x0 KECCAK256 SWAP1 POP POP PUSH1 0x0 PUSH1 0x2 DUP3 DUP2 SLOAD DUP2 LT PUSH2 0x610 JUMPI PUSH2 0x60F PUSH2 0x26A5 JUMP JUMPDEST JUMPDEST SWAP1 PUSH1 0x0 MSTORE PUSH1 0x20 PUSH1 0x0 KECCAK256 SWAP1 PUSH1 0x5 MUL ADD SWAP1 POP CALLER DUP2 PUSH1 0x0 ADD PUSH1 0x0 PUSH2 0x100 EXP DUP2 SLOAD DUP2 PUSH20 0xFFFFFFFFFFFFFFFFFFFFFFFFFFFFFFFFFFFFFFFF MUL NOT AND SWAP1 DUP4 PUSH20 0xFFFFFFFFFFFFFFFFFFFFFFFFFFFFFFFFFFFFFFFF AND MUL OR SWAP1 SSTORE POP DUP4 DUP2 PUSH1 0x1 ADD PUSH1 0x0 PUSH2 0x100 EXP DUP2 SLOAD DUP2 PUSH20 0xFFFFFFFFFFFFFFFFFFFFFFFFFFFFFFFFFFFFFFFF MUL NOT AND SWAP1 DUP4 PUSH20 0xFFFFFFFFFFFFFFFFFFFFFFFFFFFFFFFFFFFFFFFF AND MUL OR SWAP1 SSTORE POP PUSH2 0x6AE PUSH2 0xBBD JUMP JUMPDEST DUP2 PUSH1 0x1 ADD PUSH1 0x15 PUSH2 0x100 EXP DUP2 SLOAD DUP2 PUSH8 0xFFFFFFFFFFFFFFFF MUL NOT AND SWAP1 DUP4 PUSH8 0xFFFFFFFFFFFFFFFF AND MUL OR SWAP1 SSTORE POP DUP5 DUP2 PUSH1 0x2 ADD PUSH1 0x0 PUSH2 0x100 EXP DUP2 SLOAD DUP2 PUSH8 0xFFFFFFFFFFFFFFFF MUL NOT AND SWAP1 DUP4 PUSH8 0xFFFFFFFFFFFFFFFF AND MUL OR SWAP1 SSTORE POP CALLVALUE DUP2 PUSH1 0x4 ADD PUSH1 0x0 PUSH2 0x100 EXP DUP2 SLOAD DUP2 PUSH16 0xFFFFFFFFFFFFFFFFFFFFFFFFFFFFFFFF MUL NOT AND SWAP1 DUP4 PUSH16 0xFFFFFFFFFFFFFFFFFFFFFFFFFFFFFFFF AND MUL OR SWAP1 SSTORE POP PUSH1 0x0 DUP2 PUSH1 0x2 ADD PUSH1 0x8 PUSH2 0x100 EXP DUP2 SLOAD DUP2 PUSH8 0xFFFFFFFFFFFFFFFF MUL NOT AND SWAP1 DUP4 PUSH8 0xFFFFFFFFFFFFFFFF AND MUL OR SWAP1 SSTORE POP DUP5 PUSH8 0xFFFFFFFFFFFFFFFF AND PUSH8 0xFFFFFFFFFFFFFFFF DUP2 GT ISZERO PUSH2 0x78E JUMPI PUSH2 0x78D PUSH2 0x26D4 JUMP JUMPDEST JUMPDEST PUSH1 0x40 MLOAD SWAP1 DUP1 DUP3 MSTORE DUP1 PUSH1 0x20 MUL PUSH1 0x20 ADD DUP3 ADD PUSH1 0x40 MSTORE DUP1 ISZERO PUSH2 0x7BC JUMPI DUP2 PUSH1 0x20 ADD PUSH1 0x20 DUP3 MUL DUP1 CALLDATASIZE DUP4 CALLDATACOPY DUP1 DUP3 ADD SWAP2 POP POP SWAP1 POP JUMPDEST POP DUP2 PUSH1 0x3 ADD SWAP1 DUP1 MLOAD SWAP1 PUSH1 0x20 ADD SWAP1 PUSH2 0x7D4 SWAP3 SWAP2 SWAP1 PUSH2 0x1DAF JUMP JUMPDEST POP PUSH1 0x0 DUP2 PUSH1 0x1 ADD PUSH1 0x14 PUSH2 0x100 EXP DUP2 SLOAD DUP2 PUSH1 0xFF MUL NOT AND SWAP1 DUP4 ISZERO ISZERO MUL OR SWAP1 SSTORE POP DUP2 CALLER PUSH20 0xFFFFFFFFFFFFFFFFFFFFFFFFFFFFFFFFFFFFFFFF AND PUSH32 0x9F85484CC8FB25030D222FDCD51EB22A0F9B61069192AF1DBFB3FF32B78B6D67 PUSH1 0x40 MLOAD PUSH1 0x40 MLOAD DUP1 SWAP2 SUB SWAP1 LOG3 DUP2 SWAP3 POP POP POP SWAP3 SWAP2 POP POP JUMP JUMPDEST PUSH2 0x849 PUSH2 0x1E55 JUMP JUMPDEST PUSH1 0x2 DUP3 DUP2 SLOAD DUP2 LT PUSH2 0x85D JUMPI PUSH2 0x85C PUSH2 0x26A5 JUMP JUMPDEST JUMPDEST SWAP1 PUSH1 0x0 MSTORE PUSH1 0x20 PUSH1 0x0 KECCAK256 SWAP1 PUSH1 0x5 MUL ADD PUSH1 0x40 MLOAD DUP1 PUSH2 0x100 ADD PUSH1 0x40 MSTORE SWAP1 DUP2 PUSH1 0x0 DUP3 ADD PUSH1 0x0 SWAP1 SLOAD SWAP1 PUSH2 0x100 EXP SWAP1 DIV PUSH20 0xFFFFFFFFFFFFFFFFFFFFFFFFFFFFFFFFFFFFFFFF AND PUSH20 0xFFFFFFFFFFFFFFFFFFFFFFFFFFFFFFFFFFFFFFFF AND PUSH20 0xFFFFFFFFFFFFFFFFFFFFFFFFFFFFFFFFFFFFFFFF AND DUP2 MSTORE PUSH1 0x20 ADD PUSH1 0x1 DUP3 ADD PUSH1 0x0 SWAP1 SLOAD SWAP1 PUSH2 0x100 EXP SWAP1 DIV PUSH20 0xFFFFFFFFFFFFFFFFFFFFFFFFFFFFFFFFFFFFFFFF AND PUSH20 0xFFFFFFFFFFFFFFFFFFFFFFFFFFFFFFFFFFFFFFFF AND PUSH20 0xFFFFFFFFFFFFFFFFFFFFFFFFFFFFFFFFFFFFFFFF AND DUP2 MSTORE PUSH1 0x20 ADD PUSH1 0x1 DUP3 ADD PUSH1 0x14 SWAP1 SLOAD SWAP1 PUSH2 0x100 EXP SWAP1 DIV PUSH1 0xFF AND ISZERO ISZERO ISZERO ISZERO DUP2 MSTORE PUSH1 0x20 ADD PUSH1 0x1 DUP3 ADD PUSH1 0x15 SWAP1 SLOAD SWAP1 PUSH2 0x100 EXP SWAP1 DIV PUSH8 0xFFFFFFFFFFFFFFFF AND PUSH8 0xFFFFFFFFFFFFFFFF AND PUSH8 0xFFFFFFFFFFFFFFFF AND DUP2 MSTORE PUSH1 0x20 ADD PUSH1 0x2 DUP3 ADD PUSH1 0x0 SWAP1 SLOAD SWAP1 PUSH2 0x100 EXP SWAP1 DIV PUSH8 0xFFFFFFFFFFFFFFFF AND PUSH8 0xFFFFFFFFFFFFFFFF AND PUSH8 0xFFFFFFFFFFFFFFFF AND DUP2 MSTORE PUSH1 0x20 ADD PUSH1 0x2 DUP3 ADD PUSH1 0x8 SWAP1 SLOAD SWAP1 PUSH2 0x100 EXP SWAP1 DIV PUSH8 0xFFFFFFFFFFFFFFFF AND PUSH8 0xFFFFFFFFFFFFFFFF AND PUSH8 0xFFFFFFFFFFFFFFFF AND DUP2 MSTORE PUSH1 0x20 ADD PUSH1 0x3 DUP3 ADD DUP1 SLOAD DUP1 PUSH1 0x20 MUL PUSH1 0x20 ADD PUSH1 0x40 MLOAD SWAP1 DUP2 ADD PUSH1 0x40 MSTORE DUP1 SWAP3 SWAP2 SWAP1 DUP2 DUP2 MSTORE PUSH1 0x20 ADD DUP3 DUP1 SLOAD DUP1 ISZERO PUSH2 0xA48 JUMPI PUSH1 0x20 MUL DUP3 ADD SWAP2 SWAP1 PUSH1 0x0 MSTORE PUSH1 0x20 PUSH1 0x0 KECCAK256 SWAP1 PUSH1 0x0 SWAP1 JUMPDEST DUP3 DUP3 SWAP1 SLOAD SWAP1 PUSH2 0x100 EXP SWAP1 DIV PUSH1 0xFF AND ISZERO ISZERO DUP2 MSTORE PUSH1 0x20 ADD SWAP1 PUSH1 0x1 ADD SWAP1 PUSH1 0x20 DUP3 PUSH1 0x0 ADD DIV SWAP3 DUP4 ADD SWAP3 PUSH1 0x1 SUB DUP3 MUL SWAP2 POP DUP1 DUP5 GT PUSH2 0xA12 JUMPI SWAP1 POP JUMPDEST POP POP POP POP POP DUP2 MSTORE PUSH1 0x20 ADD PUSH1 0x4 DUP3 ADD PUSH1 0x0 SWAP1 SLOAD SWAP1 PUSH2 0x100 EXP SWAP1 DIV PUSH16 0xFFFFFFFFFFFFFFFFFFFFFFFFFFFFFFFF AND PUSH16 0xFFFFFFFFFFFFFFFFFFFFFFFFFFFFFFFF AND PUSH16 0xFFFFFFFFFFFFFFFFFFFFFFFFFFFFFFFF AND DUP2 MSTORE POP POP SWAP1 POP SWAP2 SWAP1 POP JUMP JUMPDEST PUSH1 0x0 DUP1 PUSH1 0x0 DUP4 DUP2 MSTORE PUSH1 0x20 ADD SWAP1 DUP2 MSTORE PUSH1 0x20 ADD PUSH1 0x0 KECCAK256 PUSH1 0x1 ADD SLOAD SWAP1 POP SWAP2 SWAP1 POP JUMP JUMPDEST PUSH32 0xA49807205CE4D355092EF5A8A18F56E8913CF4A201FBE287825B095693C21775 PUSH2 0xAEB DUP2 PUSH2 0x187F JUMP JUMPDEST PUSH2 0xB15 PUSH32 0xB58436161AA98D7442FFFF3AF203D6031AD86E54EE571266152AA0E83A524726 DUP4 PUSH2 0x1893 JUMP JUMPDEST POP POP POP JUMP JUMPDEST PUSH2 0xB23 DUP3 PUSH2 0xAA2 JUMP JUMPDEST PUSH2 0xB2C DUP2 PUSH2 0x187F JUMP JUMPDEST PUSH2 0xB36 DUP4 DUP4 PUSH2 0x1893 JUMP JUMPDEST POP POP POP POP JUMP JUMPDEST PUSH1 0x1 SLOAD DUP2 JUMP JUMPDEST PUSH2 0xB4A PUSH2 0x1984 JUMP JUMPDEST PUSH20 0xFFFFFFFFFFFFFFFFFFFFFFFFFFFFFFFFFFFFFFFF AND DUP2 PUSH20 0xFFFFFFFFFFFFFFFFFFFFFFFFFFFFFFFFFFFFFFFF AND EQ PUSH2 0xBAE JUMPI PUSH1 0x40 MLOAD PUSH32 0x6697B23200000000000000000000000000000000000000000000000000000000 DUP2 MSTORE PUSH1 0x4 ADD PUSH1 0x40 MLOAD DUP1 SWAP2 SUB SWAP1 REVERT JUMPDEST PUSH2 0xBB8 DUP3 DUP3 PUSH2 0x198C JUMP JUMPDEST POP POP POP JUMP JUMPDEST PUSH1 0x0 PUSH2 0x3E8 PUSH3 0x15180 TIMESTAMP PUSH2 0xBD1 SWAP2 SWAP1 PUSH2 0x2761 JUMP JUMPDEST PUSH2 0xBDB SWAP2 SWAP1 PUSH2 0x2761 JUMP JUMPDEST SWAP1 POP SWAP1 JUMP JUMPDEST PUSH1 0x0 PUSH1 0x2 DUP3 DUP2 SLOAD DUP2 LT PUSH2 0xBF6 JUMPI PUSH2 0xBF5 PUSH2 0x26A5 JUMP JUMPDEST JUMPDEST SWAP1 PUSH1 0x0 MSTORE PUSH1 0x20 PUSH1 0x0 KECCAK256 SWAP1 PUSH1 0x5 MUL ADD SWAP1 POP DUP1 PUSH1 0x1 ADD PUSH1 0x0 SWAP1 SLOAD SWAP1 PUSH2 0x100 EXP SWAP1 DIV PUSH20 0xFFFFFFFFFFFFFFFFFFFFFFFFFFFFFFFFFFFFFFFF AND PUSH20 0xFFFFFFFFFFFFFFFFFFFFFFFFFFFFFFFFFFFFFFFF AND CALLER PUSH20 0xFFFFFFFFFFFFFFFFFFFFFFFFFFFFFFFFFFFFFFFF AND EQ PUSH2 0xC98 JUMPI PUSH1 0x40 MLOAD PUSH32 0x8C379A000000000000000000000000000000000000000000000000000000000 DUP2 MSTORE PUSH1 0x4 ADD PUSH2 0xC8F SWAP1 PUSH2 0x27DE JUMP JUMPDEST PUSH1 0x40 MLOAD DUP1 SWAP2 SUB SWAP1 REVERT JUMPDEST DUP1 PUSH1 0x1 ADD PUSH1 0x14 SWAP1 SLOAD SWAP1 PUSH2 0x100 EXP SWAP1 DIV PUSH1 0xFF AND ISZERO PUSH2 0xCEA JUMPI PUSH1 0x40 MLOAD PUSH32 0x8C379A000000000000000000000000000000000000000000000000000000000 DUP2 MSTORE PUSH1 0x4 ADD PUSH2 0xCE1 SWAP1 PUSH2 0x284A JUMP JUMPDEST PUSH1 0x40 MLOAD DUP1 SWAP2 SUB SWAP1 REVERT JUMPDEST DUP1 PUSH1 0x2 ADD PUSH1 0x0 SWAP1 SLOAD SWAP1 PUSH2 0x100 EXP SWAP1 DIV PUSH8 0xFFFFFFFFFFFFFFFF AND DUP2 PUSH1 0x1 ADD PUSH1 0x15 SWAP1 SLOAD SWAP1 PUSH2 0x100 EXP SWAP1 DIV PUSH8 0xFFFFFFFFFFFFFFFF AND PUSH2 0xD26 SWAP2 SWAP1 PUSH2 0x286A JUMP JUMPDEST PUSH8 0xFFFFFFFFFFFFFFFF AND PUSH2 0xD38 PUSH2 0xBBD JUMP JUMPDEST PUSH8 0xFFFFFFFFFFFFFFFF AND LT ISZERO PUSH2 0xD83 JUMPI PUSH1 0x40 MLOAD PUSH32 0x8C379A000000000000000000000000000000000000000000000000000000000 DUP2 MSTORE PUSH1 0x4 ADD PUSH2 0xD7A SWAP1 PUSH2 0x28F2 JUMP JUMPDEST PUSH1 0x40 MLOAD DUP1 SWAP2 SUB SWAP1 REVERT JUMPDEST PUSH1 0x1 DUP2 PUSH1 0x1 ADD PUSH1 0x14 PUSH2 0x100 EXP DUP2 SLOAD DUP2 PUSH1 0xFF MUL NOT AND SWAP1 DUP4 ISZERO ISZERO MUL OR SWAP1 SSTORE POP PUSH1 0x0 DUP2 PUSH1 0x2 ADD PUSH1 0x0 SWAP1 SLOAD SWAP1 PUSH2 0x100 EXP SWAP1 DIV PUSH8 0xFFFFFFFFFFFFFFFF AND PUSH8 0xFFFFFFFFFFFFFFFF AND DUP3 PUSH1 0x2 ADD PUSH1 0x8 SWAP1 SLOAD SWAP1 PUSH2 0x100 EXP SWAP1 DIV PUSH8 0xFFFFFFFFFFFFFFFF AND DUP4 PUSH1 0x2 ADD PUSH1 0x0 SWAP1 SLOAD SWAP1 PUSH2 0x100 EXP SWAP1 DIV PUSH8 0xFFFFFFFFFFFFFFFF AND PUSH2 0xE01 SWAP2 SWAP1 PUSH2 0x2912 JUMP JUMPDEST PUSH8 0xFFFFFFFFFFFFFFFF AND DUP4 PUSH1 0x4 ADD PUSH1 0x0 SWAP1 SLOAD SWAP1 PUSH2 0x100 EXP SWAP1 DIV PUSH16 0xFFFFFFFFFFFFFFFFFFFFFFFFFFFFFFFF AND PUSH2 0xE36 SWAP2 SWAP1 PUSH2 0x294E JUMP JUMPDEST PUSH2 0xE40 SWAP2 SWAP1 PUSH2 0x298B JUMP JUMPDEST SWAP1 POP PUSH1 0x0 DUP3 PUSH1 0x0 ADD PUSH1 0x0 SWAP1 SLOAD SWAP1 PUSH2 0x100 EXP SWAP1 DIV PUSH20 0xFFFFFFFFFFFFFFFFFFFFFFFFFFFFFFFFFFFFFFFF AND PUSH20 0xFFFFFFFFFFFFFFFFFFFFFFFFFFFFFFFFFFFFFFFF AND DUP3 PUSH16 0xFFFFFFFFFFFFFFFFFFFFFFFFFFFFFFFF AND PUSH1 0x40 MLOAD PUSH2 0xE9E SWAP1 PUSH2 0x29ED JUMP JUMPDEST PUSH1 0x0 PUSH1 0x40 MLOAD DUP1 DUP4 SUB DUP2 DUP6 DUP8 GAS CALL SWAP3 POP POP POP RETURNDATASIZE DUP1 PUSH1 0x0 DUP2 EQ PUSH2 0xEDB JUMPI PUSH1 0x40 MLOAD SWAP2 POP PUSH1 0x1F NOT PUSH1 0x3F RETURNDATASIZE ADD AND DUP3 ADD PUSH1 0x40 MSTORE RETURNDATASIZE DUP3 MSTORE RETURNDATASIZE PUSH1 0x0 PUSH1 0x20 DUP5 ADD RETURNDATACOPY PUSH2 0xEE0 JUMP JUMPDEST PUSH1 0x60 SWAP2 POP JUMPDEST POP POP SWAP1 POP DUP1 PUSH2 0xF24 JUMPI PUSH1 0x40 MLOAD PUSH32 0x8C379A000000000000000000000000000000000000000000000000000000000 DUP2 MSTORE PUSH1 0x4 ADD PUSH2 0xF1B SWAP1 PUSH2 0x2A4E JUMP JUMPDEST PUSH1 0x40 MLOAD DUP1 SWAP2 SUB SWAP1 REVERT JUMPDEST DUP4 DUP4 PUSH1 0x0 ADD PUSH1 0x0 SWAP1 SLOAD SWAP1 PUSH2 0x100 EXP SWAP1 DIV PUSH20 0xFFFFFFFFFFFFFFFFFFFFFFFFFFFFFFFFFFFFFFFF AND PUSH20 0xFFFFFFFFFFFFFFFFFFFFFFFFFFFFFFFFFFFFFFFF AND PUSH32 0x4D891138AA3BF8EB092AD2BC3D9C1F34594D0247149C374DF85C1AAFCE565DC1 PUSH1 0x0 DUP7 PUSH1 0x2 ADD PUSH1 0x8 SWAP1 SLOAD SWAP1 PUSH2 0x100 EXP SWAP1 DIV PUSH8 0xFFFFFFFFFFFFFFFF AND PUSH8 0xFFFFFFFFFFFFFFFF AND EQ PUSH1 0x40 MLOAD PUSH2 0xFB4 SWAP2 SWAP1 PUSH2 0x1FBF JUMP JUMPDEST PUSH1 0x40 MLOAD DUP1 SWAP2 SUB SWAP1 LOG3 POP POP POP POP JUMP JUMPDEST PUSH32 0xDC524625EE47C1307F73CA251C4AD484F67E39655F5DB729C813FED3E3FB2CE2 DUP2 JUMP JUMPDEST PUSH32 0xB58436161AA98D7442FFFF3AF203D6031AD86E54EE571266152AA0E83A524726 DUP2 JUMP JUMPDEST PUSH32 0xA49807205CE4D355092EF5A8A18F56E8913CF4A201FBE287825B095693C21775 DUP2 JUMP JUMPDEST PUSH1 0x2 DUP2 DUP2 SLOAD DUP2 LT PUSH2 0x103E JUMPI PUSH1 0x0 DUP1 REVERT JUMPDEST SWAP1 PUSH1 0x0 MSTORE PUSH1 0x20 PUSH1 0x0 KECCAK256 SWAP1 PUSH1 0x5 MUL ADD PUSH1 0x0 SWAP2 POP SWAP1 POP DUP1 PUSH1 0x0 ADD PUSH1 0x0 SWAP1 SLOAD SWAP1 PUSH2 0x100 EXP SWAP1 DIV PUSH20 0xFFFFFFFFFFFFFFFFFFFFFFFFFFFFFFFFFFFFFFFF AND SWAP1 DUP1 PUSH1 0x1 ADD PUSH1 0x0 SWAP1 SLOAD SWAP1 PUSH2 0x100 EXP SWAP1 DIV PUSH20 0xFFFFFFFFFFFFFFFFFFFFFFFFFFFFFFFFFFFFFFFF AND SWAP1 DUP1 PUSH1 0x1 ADD PUSH1 0x14 SWAP1 SLOAD SWAP1 PUSH2 0x100 EXP SWAP1 DIV PUSH1 0xFF AND SWAP1 DUP1 PUSH1 0x1 ADD PUSH1 0x15 SWAP1 SLOAD SWAP1 PUSH2 0x100 EXP SWAP1 DIV PUSH8 0xFFFFFFFFFFFFFFFF AND SWAP1 DUP1 PUSH1 0x2 ADD PUSH1 0x0 SWAP1 SLOAD SWAP1 PUSH2 0x100 EXP SWAP1 DIV PUSH8 0xFFFFFFFFFFFFFFFF AND SWAP1 DUP1 PUSH1 0x2 ADD PUSH1 0x8 SWAP1 SLOAD SWAP1 PUSH2 0x100 EXP SWAP1 DIV PUSH8 0xFFFFFFFFFFFFFFFF AND SWAP1 DUP1 PUSH1 0x4 ADD PUSH1 0x0 SWAP1 SLOAD SWAP1 PUSH2 0x100 EXP SWAP1 DIV PUSH16 0xFFFFFFFFFFFFFFFFFFFFFFFFFFFFFFFF AND SWAP1 POP DUP8 JUMP JUMPDEST PUSH1 0x0 PUSH1 0x2 DUP4 DUP2 SLOAD DUP2 LT PUSH2 0x113B JUMPI PUSH2 0x113A PUSH2 0x26A5 JUMP JUMPDEST JUMPDEST SWAP1 PUSH1 0x0 MSTORE PUSH1 0x20 PUSH1 0x0 KECCAK256 SWAP1 PUSH1 0x5 MUL ADD SWAP1 POP DUP1 PUSH1 0x1 ADD PUSH1 0x0 SWAP1 SLOAD SWAP1 PUSH2 0x100 EXP SWAP1 DIV PUSH20 0xFFFFFFFFFFFFFFFFFFFFFFFFFFFFFFFFFFFFFFFF AND PUSH20 0xFFFFFFFFFFFFFFFFFFFFFFFFFFFFFFFFFFFFFFFF AND CALLER PUSH20 0xFFFFFFFFFFFFFFFFFFFFFFFFFFFFFFFFFFFFFFFF AND EQ PUSH2 0x11DD JUMPI PUSH1 0x40 MLOAD PUSH32 0x8C379A000000000000000000000000000000000000000000000000000000000 DUP2 MSTORE PUSH1 0x4 ADD PUSH2 0x11D4 SWAP1 PUSH2 0x27DE JUMP JUMPDEST PUSH1 0x40 MLOAD DUP1 SWAP2 SUB SWAP1 REVERT JUMPDEST DUP1 PUSH1 0x1 ADD PUSH1 0x14 SWAP1 SLOAD SWAP1 PUSH2 0x100 EXP SWAP1 DIV PUSH1 0xFF AND ISZERO PUSH2 0x122F JUMPI PUSH1 0x40 MLOAD PUSH32 0x8C379A000000000000000000000000000000000000000000000000000000000 DUP2 MSTORE PUSH1 0x4 ADD PUSH2 0x1226 SWAP1 PUSH2 0x2ABA JUMP JUMPDEST PUSH1 0x40 MLOAD DUP1 SWAP2 SUB SWAP1 REVERT JUMPDEST DUP1 PUSH1 0x3 ADD DUP3 PUSH8 0xFFFFFFFFFFFFFFFF AND DUP2 SLOAD DUP2 LT PUSH2 0x124F JUMPI PUSH2 0x124E PUSH2 0x26A5 JUMP JUMPDEST JUMPDEST SWAP1 PUSH1 0x0 MSTORE PUSH1 0x20 PUSH1 0x0 KECCAK256 SWAP1 PUSH1 0x20 SWAP2 DUP3 DUP3 DIV ADD SWAP2 SWAP1 MOD SWAP1 SLOAD SWAP1 PUSH2 0x100 EXP SWAP1 DIV PUSH1 0xFF AND PUSH2 0x130E JUMPI PUSH1 0x1 DUP2 PUSH1 0x3 ADD DUP4 PUSH8 0xFFFFFFFFFFFFFFFF AND DUP2 SLOAD DUP2 LT PUSH2 0x1295 JUMPI PUSH2 0x1294 PUSH2 0x26A5 JUMP JUMPDEST JUMPDEST SWAP1 PUSH1 0x0 MSTORE PUSH1 0x20 PUSH1 0x0 KECCAK256 SWAP1 PUSH1 0x20 SWAP2 DUP3 DUP3 DIV ADD SWAP2 SWAP1 MOD PUSH2 0x100 EXP DUP2 SLOAD DUP2 PUSH1 0xFF MUL NOT AND SWAP1 DUP4 ISZERO ISZERO MUL OR SWAP1 SSTORE POP DUP1 PUSH1 0x2 ADD PUSH1 0x8 DUP2 DUP2 SWAP1 SLOAD SWAP1 PUSH2 0x100 EXP SWAP1 DIV PUSH8 0xFFFFFFFFFFFFFFFF AND DUP1 SWAP3 SWAP2 SWAP1 PUSH2 0x12E6 SWAP1 PUSH2 0x2ADA JUMP JUMPDEST SWAP2 SWAP1 PUSH2 0x100 EXP DUP2 SLOAD DUP2 PUSH8 0xFFFFFFFFFFFFFFFF MUL NOT AND SWAP1 DUP4 PUSH8 0xFFFFFFFFFFFFFFFF AND MUL OR SWAP1 SSTORE POP POP JUMPDEST POP POP POP JUMP JUMPDEST PUSH1 0x0 DUP1 PUSH1 0x0 DUP5 DUP2 MSTORE PUSH1 0x20 ADD SWAP1 DUP2 MSTORE PUSH1 0x20 ADD PUSH1 0x0 KECCAK256 PUSH1 0x0 ADD PUSH1 0x0 DUP4 PUSH20 0xFFFFFFFFFFFFFFFFFFFFFFFFFFFFFFFFFFFFFFFF AND PUSH20 0xFFFFFFFFFFFFFFFFFFFFFFFFFFFFFFFFFFFFFFFF AND DUP2 MSTORE PUSH1 0x20 ADD SWAP1 DUP2 MSTORE PUSH1 0x20 ADD PUSH1 0x0 KECCAK256 PUSH1 0x0 SWAP1 SLOAD SWAP1 PUSH2 0x100 EXP SWAP1 DIV PUSH1 0xFF AND SWAP1 POP SWAP3 SWAP2 POP POP JUMP JUMPDEST PUSH1 0x0 DUP1 SHL DUP2 JUMP JUMPDEST PUSH32 0xA49807205CE4D355092EF5A8A18F56E8913CF4A201FBE287825B095693C21775 PUSH2 0x13AE DUP2 PUSH2 0x187F JUMP JUMPDEST PUSH2 0x13D8 PUSH32 0xB58436161AA98D7442FFFF3AF203D6031AD86E54EE571266152AA0E83A524726 DUP4 PUSH2 0x198C JUMP JUMPDEST POP POP POP JUMP JUMPDEST PUSH1 0x0 PUSH1 0x2 DUP6 DUP2 SLOAD DUP2 LT PUSH2 0x13F3 JUMPI PUSH2 0x13F2 PUSH2 0x26A5 JUMP JUMPDEST JUMPDEST SWAP1 PUSH1 0x0 MSTORE PUSH1 0x20 PUSH1 0x0 KECCAK256 SWAP1 PUSH1 0x5 MUL ADD SWAP1 POP DUP1 PUSH1 0x1 ADD PUSH1 0x14 SWAP1 SLOAD SWAP1 PUSH2 0x100 EXP SWAP1 DIV PUSH1 0xFF AND ISZERO PUSH2 0x1455 JUMPI PUSH1 0x40 MLOAD PUSH32 0x8C379A000000000000000000000000000000000000000000000000000000000 DUP2 MSTORE PUSH1 0x4 ADD PUSH2 0x144C SWAP1 PUSH2 0x2B56 JUMP JUMPDEST PUSH1 0x40 MLOAD DUP1 SWAP2 SUB SWAP1 REVERT JUMPDEST DUP1 PUSH1 0x2 ADD PUSH1 0x0 SWAP1 SLOAD SWAP1 PUSH2 0x100 EXP SWAP1 DIV PUSH8 0xFFFFFFFFFFFFFFFF AND PUSH8 0xFFFFFFFFFFFFFFFF AND DUP5 PUSH8 0xFFFFFFFFFFFFFFFF AND LT PUSH2 0x14C3 JUMPI PUSH1 0x40 MLOAD PUSH32 0x8C379A000000000000000000000000000000000000000000000000000000000 DUP2 MSTORE PUSH1 0x4 ADD PUSH2 0x14BA SWAP1 PUSH2 0x2BC2 JUMP JUMPDEST PUSH1 0x40 MLOAD DUP1 SWAP2 SUB SWAP1 REVERT JUMPDEST PUSH1 0x0 PUSH32 0xDC524625EE47C1307F73CA251C4AD484F67E39655F5DB729C813FED3E3FB2CE2 DUP7 DUP7 PUSH1 0x40 MLOAD PUSH1 0x20 ADD PUSH2 0x14FA SWAP4 SWAP3 SWAP2 SWAP1 PUSH2 0x2BE2 JUMP JUMPDEST PUSH1 0x40 MLOAD PUSH1 0x20 DUP2 DUP4 SUB SUB DUP2 MSTORE SWAP1 PUSH1 0x40 MSTORE DUP1 MLOAD SWAP1 PUSH1 0x20 ADD KECCAK256 SWAP1 POP PUSH1 0x0 PUSH1 0x1 SLOAD DUP3 PUSH1 0x40 MLOAD PUSH1 0x20 ADD PUSH2 0x1529 SWAP3 SWAP2 SWAP1 PUSH2 0x2C91 JUMP JUMPDEST PUSH1 0x40 MLOAD PUSH1 0x20 DUP2 DUP4 SUB SUB DUP2 MSTORE SWAP1 PUSH1 0x40 MSTORE DUP1 MLOAD SWAP1 PUSH1 0x20 ADD KECCAK256 SWAP1 POP PUSH1 0x0 PUSH2 0x159A DUP7 DUP7 DUP1 DUP1 PUSH1 0x1F ADD PUSH1 0x20 DUP1 SWAP2 DIV MUL PUSH1 0x20 ADD PUSH1 0x40 MLOAD SWAP1 DUP2 ADD PUSH1 0x40 MSTORE DUP1 SWAP4 SWAP3 SWAP2 SWAP1 DUP2 DUP2 MSTORE PUSH1 0x20 ADD DUP4 DUP4 DUP1 DUP3 DUP5 CALLDATACOPY PUSH1 0x0 DUP2 DUP5 ADD MSTORE PUSH1 0x1F NOT PUSH1 0x1F DUP3 ADD AND SWAP1 POP DUP1 DUP4 ADD SWAP3 POP POP POP POP POP POP POP DUP4 PUSH2 0x1A7E SWAP1 SWAP2 SWAP1 PUSH4 0xFFFFFFFF AND JUMP JUMPDEST SWAP1 POP DUP4 PUSH1 0x1 ADD PUSH1 0x0 SWAP1 SLOAD SWAP1 PUSH2 0x100 EXP SWAP1 DIV PUSH20 0xFFFFFFFFFFFFFFFFFFFFFFFFFFFFFFFFFFFFFFFF AND PUSH20 0xFFFFFFFFFFFFFFFFFFFFFFFFFFFFFFFFFFFFFFFF AND DUP2 PUSH20 0xFFFFFFFFFFFFFFFFFFFFFFFFFFFFFFFFFFFFFFFF AND EQ PUSH2 0x162E JUMPI PUSH1 0x40 MLOAD PUSH32 0x8C379A000000000000000000000000000000000000000000000000000000000 DUP2 MSTORE PUSH1 0x4 ADD PUSH2 0x1625 SWAP1 PUSH2 0x2D14 JUMP JUMPDEST PUSH1 0x40 MLOAD DUP1 SWAP2 SUB SWAP1 REVERT JUMPDEST DUP4 PUSH1 0x3 ADD DUP8 PUSH8 0xFFFFFFFFFFFFFFFF AND DUP2 SLOAD DUP2 LT PUSH2 0x164E JUMPI PUSH2 0x164D PUSH2 0x26A5 JUMP JUMPDEST JUMPDEST SWAP1 PUSH1 0x0 MSTORE PUSH1 0x20 PUSH1 0x0 KECCAK256 SWAP1 PUSH1 0x20 SWAP2 DUP3 DUP3 DIV ADD SWAP2 SWAP1 MOD SWAP1 SLOAD SWAP1 PUSH2 0x100 EXP SWAP1 DIV PUSH1 0xFF AND PUSH2 0x170D JUMPI PUSH1 0x1 DUP5 PUSH1 0x3 ADD DUP9 PUSH8 0xFFFFFFFFFFFFFFFF AND DUP2 SLOAD DUP2 LT PUSH2 0x1694 JUMPI PUSH2 0x1693 PUSH2 0x26A5 JUMP JUMPDEST JUMPDEST SWAP1 PUSH1 0x0 MSTORE PUSH1 0x20 PUSH1 0x0 KECCAK256 SWAP1 PUSH1 0x20 SWAP2 DUP3 DUP3 DIV ADD SWAP2 SWAP1 MOD PUSH2 0x100 EXP DUP2 SLOAD DUP2 PUSH1 0xFF MUL NOT AND SWAP1 DUP4 ISZERO ISZERO MUL OR SWAP1 SSTORE POP DUP4 PUSH1 0x2 ADD PUSH1 0x8 DUP2 DUP2 SWAP1 SLOAD SWAP1 PUSH2 0x100 EXP SWAP1 DIV PUSH8 0xFFFFFFFFFFFFFFFF AND DUP1 SWAP3 SWAP2 SWAP1 PUSH2 0x16E5 SWAP1 PUSH2 0x2ADA JUMP JUMPDEST SWAP2 SWAP1 PUSH2 0x100 EXP DUP2 SLOAD DUP2 PUSH8 0xFFFFFFFFFFFFFFFF MUL NOT AND SWAP1 DUP4 PUSH8 0xFFFFFFFFFFFFFFFF AND MUL OR SWAP1 SSTORE POP POP JUMPDEST POP POP POP POP POP POP POP POP JUMP JUMPDEST PUSH2 0x1720 DUP3 PUSH2 0xAA2 JUMP JUMPDEST PUSH2 0x1729 DUP2 PUSH2 0x187F JUMP JUMPDEST PUSH2 0x1733 DUP4 DUP4 PUSH2 0x198C JUMP JUMPDEST POP POP POP POP JUMP JUMPDEST PUSH32 0xB58436161AA98D7442FFFF3AF203D6031AD86E54EE571266152AA0E83A524726 PUSH2 0x1763 DUP2 PUSH2 0x187F JUMP JUMPDEST PUSH1 0x0 DUP4 PUSH20 0xFFFFFFFFFFFFFFFFFFFFFFFFFFFFFFFFFFFFFFFF AND DUP4 PUSH1 0x40 MLOAD PUSH2 0x1789 SWAP1 PUSH2 0x29ED JUMP JUMPDEST PUSH1 0x0 PUSH1 0x40 MLOAD DUP1 DUP4 SUB DUP2 DUP6 DUP8 GAS CALL SWAP3 POP POP POP RETURNDATASIZE DUP1 PUSH1 0x0 DUP2 EQ PUSH2 0x17C6 JUMPI PUSH1 0x40 MLOAD SWAP2 POP PUSH1 0x1F NOT PUSH1 0x3F RETURNDATASIZE ADD AND DUP3 ADD PUSH1 0x40 MSTORE RETURNDATASIZE DUP3 MSTORE RETURNDATASIZE PUSH1 0x0 PUSH1 0x20 DUP5 ADD RETURNDATACOPY PUSH2 0x17CB JUMP JUMPDEST PUSH1 0x60 SWAP2 POP JUMPDEST POP POP SWAP1 POP DUP1 PUSH2 0x180F JUMPI PUSH1 0x40 MLOAD PUSH32 0x8C379A000000000000000000000000000000000000000000000000000000000 DUP2 MSTORE PUSH1 0x4 ADD PUSH2 0x1806 SWAP1 PUSH2 0x2D80 JUMP JUMPDEST PUSH1 0x40 MLOAD DUP1 SWAP2 SUB SWAP1 REVERT JUMPDEST POP POP POP POP JUMP JUMPDEST PUSH1 0x0 PUSH32 0x1FFC9A700000000000000000000000000000000000000000000000000000000 PUSH28 0xFFFFFFFFFFFFFFFFFFFFFFFFFFFFFFFFFFFFFFFFFFFFFFFFFFFFFFFF NOT AND DUP3 PUSH28 0xFFFFFFFFFFFFFFFFFFFFFFFFFFFFFFFFFFFFFFFFFFFFFFFFFFFFFFFF NOT AND EQ SWAP1 POP SWAP2 SWAP1 POP JUMP JUMPDEST PUSH2 0x1890 DUP2 PUSH2 0x188B PUSH2 0x1984 JUMP JUMPDEST PUSH2 0x1AAA JUMP JUMPDEST POP JUMP JUMPDEST PUSH1 0x0 PUSH2 0x189F DUP4 DUP4 PUSH2 0x1313 JUMP JUMPDEST PUSH2 0x1979 JUMPI PUSH1 0x1 PUSH1 0x0 DUP1 DUP6 DUP2 MSTORE PUSH1 0x20 ADD SWAP1 DUP2 MSTORE PUSH1 0x20 ADD PUSH1 0x0 KECCAK256 PUSH1 0x0 ADD PUSH1 0x0 DUP5 PUSH20 0xFFFFFFFFFFFFFFFFFFFFFFFFFFFFFFFFFFFFFFFF AND PUSH20 0xFFFFFFFFFFFFFFFFFFFFFFFFFFFFFFFFFFFFFFFF AND DUP2 MSTORE PUSH1 0x20 ADD SWAP1 DUP2 MSTORE PUSH1 0x20 ADD PUSH1 0x0 KECCAK256 PUSH1 0x0 PUSH2 0x100 EXP DUP2 SLOAD DUP2 PUSH1 0xFF MUL NOT AND SWAP1 DUP4 ISZERO ISZERO MUL OR SWAP1 SSTORE POP PUSH2 0x1916 PUSH2 0x1984 JUMP JUMPDEST PUSH20 0xFFFFFFFFFFFFFFFFFFFFFFFFFFFFFFFFFFFFFFFF AND DUP3 PUSH20 0xFFFFFFFFFFFFFFFFFFFFFFFFFFFFFFFFFFFFFFFF AND DUP5 PUSH32 0x2F8788117E7EFF1D82E926EC794901D17C78024A50270940304540A733656F0D PUSH1 0x40 MLOAD PUSH1 0x40 MLOAD DUP1 SWAP2 SUB SWAP1 LOG4 PUSH1 0x1 SWAP1 POP PUSH2 0x197E JUMP JUMPDEST PUSH1 0x0 SWAP1 POP JUMPDEST SWAP3 SWAP2 POP POP JUMP JUMPDEST PUSH1 0x0 CALLER SWAP1 POP SWAP1 JUMP JUMPDEST PUSH1 0x0 PUSH2 0x1998 DUP4 DUP4 PUSH2 0x1313 JUMP JUMPDEST ISZERO PUSH2 0x1A73 JUMPI PUSH1 0x0 DUP1 PUSH1 0x0 DUP6 DUP2 MSTORE PUSH1 0x20 ADD SWAP1 DUP2 MSTORE PUSH1 0x20 ADD PUSH1 0x0 KECCAK256 PUSH1 0x0 ADD PUSH1 0x0 DUP5 PUSH20 0xFFFFFFFFFFFFFFFFFFFFFFFFFFFFFFFFFFFFFFFF AND PUSH20 0xFFFFFFFFFFFFFFFFFFFFFFFFFFFFFFFFFFFFFFFF AND DUP2 MSTORE PUSH1 0x20 ADD SWAP1 DUP2 MSTORE PUSH1 0x20 ADD PUSH1 0x0 KECCAK256 PUSH1 0x0 PUSH2 0x100 EXP DUP2 SLOAD DUP2 PUSH1 0xFF MUL NOT AND SWAP1 DUP4 ISZERO ISZERO MUL OR SWAP1 SSTORE POP PUSH2 0x1A10 PUSH2 0x1984 JUMP JUMPDEST PUSH20 0xFFFFFFFFFFFFFFFFFFFFFFFFFFFFFFFFFFFFFFFF AND DUP3 PUSH20 0xFFFFFFFFFFFFFFFFFFFFFFFFFFFFFFFFFFFFFFFF AND DUP5 PUSH32 0xF6391F5C32D9C69D2A47EA670B442974B53935D1EDC7FD64EB21E047A839171B PUSH1 0x40 MLOAD PUSH1 0x40 MLOAD DUP1 SWAP2 SUB SWAP1 LOG4 PUSH1 0x1 SWAP1 POP PUSH2 0x1A78 JUMP JUMPDEST PUSH1 0x0 SWAP1 POP JUMPDEST SWAP3 SWAP2 POP POP JUMP JUMPDEST PUSH1 0x0 DUP1 PUSH1 0x0 DUP1 PUSH2 0x1A8E DUP7 DUP7 PUSH2 0x1AFB JUMP JUMPDEST SWAP3 POP SWAP3 POP SWAP3 POP PUSH2 0x1A9E DUP3 DUP3 PUSH2 0x1B57 JUMP JUMPDEST DUP3 SWAP4 POP POP POP POP SWAP3 SWAP2 POP POP JUMP JUMPDEST PUSH2 0x1AB4 DUP3 DUP3 PUSH2 0x1313 JUMP JUMPDEST PUSH2 0x1AF7 JUMPI DUP1 DUP3 PUSH1 0x40 MLOAD PUSH32 0xE2517D3F00000000000000000000000000000000000000000000000000000000 DUP2 MSTORE PUSH1 0x4 ADD PUSH2 0x1AEE SWAP3 SWAP2 SWAP1 PUSH2 0x2DA0 JUMP JUMPDEST PUSH1 0x40 MLOAD DUP1 SWAP2 SUB SWAP1 REVERT JUMPDEST POP POP JUMP JUMPDEST PUSH1 0x0 DUP1 PUSH1 0x0 PUSH1 0x41 DUP5 MLOAD SUB PUSH2 0x1B40 JUMPI PUSH1 0x0 DUP1 PUSH1 0x0 PUSH1 0x20 DUP8 ADD MLOAD SWAP3 POP PUSH1 0x40 DUP8 ADD MLOAD SWAP2 POP PUSH1 0x60 DUP8 ADD MLOAD PUSH1 0x0 BYTE SWAP1 POP PUSH2 0x1B32 DUP9 DUP3 DUP6 DUP6 PUSH2 0x1CBB JUMP JUMPDEST SWAP6 POP SWAP6 POP SWAP6 POP POP POP POP PUSH2 0x1B50 JUMP JUMPDEST PUSH1 0x0 PUSH1 0x2 DUP6 MLOAD PUSH1 0x0 SHL SWAP3 POP SWAP3 POP SWAP3 POP JUMPDEST SWAP3 POP SWAP3 POP SWAP3 JUMP JUMPDEST PUSH1 0x0 PUSH1 0x3 DUP2 GT ISZERO PUSH2 0x1B6B JUMPI PUSH2 0x1B6A PUSH2 0x2DC9 JUMP JUMPDEST JUMPDEST DUP3 PUSH1 0x3 DUP2 GT ISZERO PUSH2 0x1B7E JUMPI PUSH2 0x1B7D PUSH2 0x2DC9 JUMP JUMPDEST JUMPDEST SUB ISZERO PUSH2 0x1CB7 JUMPI PUSH1 0x1 PUSH1 0x3 DUP2 GT ISZERO PUSH2 0x1B98 JUMPI PUSH2 0x1B97 PUSH2 0x2DC9 JUMP JUMPDEST JUMPDEST DUP3 PUSH1 0x3 DUP2 GT ISZERO PUSH2 0x1BAB JUMPI PUSH2 0x1BAA PUSH2 0x2DC9 JUMP JUMPDEST JUMPDEST SUB PUSH2 0x1BE2 JUMPI PUSH1 0x40 MLOAD PUSH32 0xF645EEDF00000000000000000000000000000000000000000000000000000000 DUP2 MSTORE PUSH1 0x4 ADD PUSH1 0x40 MLOAD DUP1 SWAP2 SUB SWAP1 REVERT JUMPDEST PUSH1 0x2 PUSH1 0x3 DUP2 GT ISZERO PUSH2 0x1BF6 JUMPI PUSH2 0x1BF5 PUSH2 0x2DC9 JUMP JUMPDEST JUMPDEST DUP3 PUSH1 0x3 DUP2 GT ISZERO PUSH2 0x1C09 JUMPI PUSH2 0x1C08 PUSH2 0x2DC9 JUMP JUMPDEST JUMPDEST SUB PUSH2 0x1C4E JUMPI DUP1 PUSH1 0x0 SHR PUSH1 0x40 MLOAD PUSH32 0xFCE698F700000000000000000000000000000000000000000000000000000000 DUP2 MSTORE PUSH1 0x4 ADD PUSH2 0x1C45 SWAP2 SWAP1 PUSH2 0x20D1 JUMP JUMPDEST PUSH1 0x40 MLOAD DUP1 SWAP2 SUB SWAP1 REVERT JUMPDEST PUSH1 0x3 DUP1 DUP2 GT ISZERO PUSH2 0x1C61 JUMPI PUSH2 0x1C60 PUSH2 0x2DC9 JUMP JUMPDEST JUMPDEST DUP3 PUSH1 0x3 DUP2 GT ISZERO PUSH2 0x1C74 JUMPI PUSH2 0x1C73 PUSH2 0x2DC9 JUMP JUMPDEST JUMPDEST SUB PUSH2 0x1CB6 JUMPI DUP1 PUSH1 0x40 MLOAD PUSH32 0xD78BCE0C00000000000000000000000000000000000000000000000000000000 DUP2 MSTORE PUSH1 0x4 ADD PUSH2 0x1CAD SWAP2 SWAP1 PUSH2 0x2390 JUMP JUMPDEST PUSH1 0x40 MLOAD DUP1 SWAP2 SUB SWAP1 REVERT JUMPDEST JUMPDEST POP POP JUMP JUMPDEST PUSH1 0x0 DUP1 PUSH1 0x0 PUSH32 0x7FFFFFFFFFFFFFFFFFFFFFFFFFFFFFFF5D576E7357A4501DDFE92F46681B20A0 DUP5 PUSH1 0x0 SHR GT ISZERO PUSH2 0x1CFB JUMPI PUSH1 0x0 PUSH1 0x3 DUP6 SWAP3 POP SWAP3 POP SWAP3 POP PUSH2 0x1DA5 JUMP JUMPDEST PUSH1 0x0 PUSH1 0x1 DUP9 DUP9 DUP9 DUP9 PUSH1 0x40 MLOAD PUSH1 0x0 DUP2 MSTORE PUSH1 0x20 ADD PUSH1 0x40 MSTORE PUSH1 0x40 MLOAD PUSH2 0x1D20 SWAP5 SWAP4 SWAP3 SWAP2 SWAP1 PUSH2 0x2E14 JUMP JUMPDEST PUSH1 0x20 PUSH1 0x40 MLOAD PUSH1 0x20 DUP2 SUB SWAP1 DUP1 DUP5 SUB SWAP1 DUP6 GAS STATICCALL ISZERO DUP1 ISZERO PUSH2 0x1D42 JUMPI RETURNDATASIZE PUSH1 0x0 DUP1 RETURNDATACOPY RETURNDATASIZE PUSH1 0x0 REVERT JUMPDEST POP POP POP PUSH1 0x20 PUSH1 0x40 MLOAD SUB MLOAD SWAP1 POP PUSH1 0x0 PUSH20 0xFFFFFFFFFFFFFFFFFFFFFFFFFFFFFFFFFFFFFFFF AND DUP2 PUSH20 0xFFFFFFFFFFFFFFFFFFFFFFFFFFFFFFFFFFFFFFFF AND SUB PUSH2 0x1D96 JUMPI PUSH1 0x0 PUSH1 0x1 PUSH1 0x0 DUP1 SHL SWAP4 POP SWAP4 POP SWAP4 POP POP PUSH2 0x1DA5 JUMP JUMPDEST DUP1 PUSH1 0x0 DUP1 PUSH1 0x0 SHL SWAP4 POP SWAP4 POP SWAP4 POP POP JUMPDEST SWAP5 POP SWAP5 POP SWAP5 SWAP2 POP POP JUMP JUMPDEST DUP3 DUP1 SLOAD DUP3 DUP3 SSTORE SWAP1 PUSH1 0x0 MSTORE PUSH1 0x20 PUSH1 0x0 KECCAK256 SWAP1 PUSH1 0x1F ADD PUSH1 0x20 SWAP1 DIV DUP2 ADD SWAP3 DUP3 ISZERO PUSH2 0x1E44 JUMPI SWAP2 PUSH1 0x20 MUL DUP3 ADD PUSH1 0x0 JUMPDEST DUP4 DUP3 GT ISZERO PUSH2 0x1E15 JUMPI DUP4 MLOAD DUP4 DUP3 PUSH2 0x100 EXP DUP2 SLOAD DUP2 PUSH1 0xFF MUL NOT AND SWAP1 DUP4 ISZERO ISZERO MUL OR SWAP1 SSTORE POP SWAP3 PUSH1 0x20 ADD SWAP3 PUSH1 0x1 ADD PUSH1 0x20 DUP2 PUSH1 0x0 ADD DIV SWAP3 DUP4 ADD SWAP3 PUSH1 0x1 SUB MUL PUSH2 0x1DD8 JUMP JUMPDEST DUP1 ISZERO PUSH2 0x1E42 JUMPI DUP3 DUP2 PUSH2 0x100 EXP DUP2 SLOAD SWAP1 PUSH1 0xFF MUL NOT AND SWAP1 SSTORE PUSH1 0x1 ADD PUSH1 0x20 DUP2 PUSH1 0x0 ADD DIV SWAP3 DUP4 ADD SWAP3 PUSH1 0x1 SUB MUL PUSH2 0x1E15 JUMP JUMPDEST POP JUMPDEST POP SWAP1 POP PUSH2 0x1E51 SWAP2 SWAP1 PUSH2 0x1EF8 JUMP JUMPDEST POP SWAP1 JUMP JUMPDEST PUSH1 0x40 MLOAD DUP1 PUSH2 0x100 ADD PUSH1 0x40 MSTORE DUP1 PUSH1 0x0 PUSH20 0xFFFFFFFFFFFFFFFFFFFFFFFFFFFFFFFFFFFFFFFF AND DUP2 MSTORE PUSH1 0x20 ADD PUSH1 0x0 PUSH20 0xFFFFFFFFFFFFFFFFFFFFFFFFFFFFFFFFFFFFFFFF AND DUP2 MSTORE PUSH1 0x20 ADD PUSH1 0x0 ISZERO ISZERO DUP2 MSTORE PUSH1 0x20 ADD PUSH1 0x0 PUSH8 0xFFFFFFFFFFFFFFFF AND DUP2 MSTORE PUSH1 0x20 ADD PUSH1 0x0 PUSH8 0xFFFFFFFFFFFFFFFF AND DUP2 MSTORE PUSH1 0x20 ADD PUSH1 0x0 PUSH8 0xFFFFFFFFFFFFFFFF AND DUP2 MSTORE PUSH1 0x20 ADD PUSH1 0x60 DUP2 MSTORE PUSH1 0x20 ADD PUSH1 0x0 PUSH16 0xFFFFFFFFFFFFFFFFFFFFFFFFFFFFFFFF AND DUP2 MSTORE POP SWAP1 JUMP JUMPDEST JUMPDEST DUP1 DUP3 GT ISZERO PUSH2 0x1F11 JUMPI PUSH1 0x0 DUP2 PUSH1 0x0 SWAP1 SSTORE POP PUSH1 0x1 ADD PUSH2 0x1EF9 JUMP JUMPDEST POP SWAP1 JUMP JUMPDEST PUSH1 0x0 DUP1 REVERT JUMPDEST PUSH1 0x0 DUP1 REVERT JUMPDEST PUSH1 0x0 PUSH32 0xFFFFFFFF00000000000000000000000000000000000000000000000000000000 DUP3 AND SWAP1 POP SWAP2 SWAP1 POP JUMP JUMPDEST PUSH2 0x1F54 DUP2 PUSH2 0x1F1F JUMP JUMPDEST DUP2 EQ PUSH2 0x1F5F JUMPI PUSH1 0x0 DUP1 REVERT JUMPDEST POP JUMP JUMPDEST PUSH1 0x0 DUP2 CALLDATALOAD SWAP1 POP PUSH2 0x1F71 DUP2 PUSH2 0x1F4B JUMP JUMPDEST SWAP3 SWAP2 POP POP JUMP JUMPDEST PUSH1 0x0 PUSH1 0x20 DUP3 DUP5 SUB SLT ISZERO PUSH2 0x1F8D JUMPI PUSH2 0x1F8C PUSH2 0x1F15 JUMP JUMPDEST JUMPDEST PUSH1 0x0 PUSH2 0x1F9B DUP5 DUP3 DUP6 ADD PUSH2 0x1F62 JUMP JUMPDEST SWAP2 POP POP SWAP3 SWAP2 POP POP JUMP JUMPDEST PUSH1 0x0 DUP2 ISZERO ISZERO SWAP1 POP SWAP2 SWAP1 POP JUMP JUMPDEST PUSH2 0x1FB9 DUP2 PUSH2 0x1FA4 JUMP JUMPDEST DUP3 MSTORE POP POP JUMP JUMPDEST PUSH1 0x0 PUSH1 0x20 DUP3 ADD SWAP1 POP PUSH2 0x1FD4 PUSH1 0x0 DUP4 ADD DUP5 PUSH2 0x1FB0 JUMP JUMPDEST SWAP3 SWAP2 POP POP JUMP JUMPDEST PUSH1 0x0 PUSH8 0xFFFFFFFFFFFFFFFF DUP3 AND SWAP1 POP SWAP2 SWAP1 POP JUMP JUMPDEST PUSH2 0x1FF7 DUP2 PUSH2 0x1FDA JUMP JUMPDEST DUP2 EQ PUSH2 0x2002 JUMPI PUSH1 0x0 DUP1 REVERT JUMPDEST POP JUMP JUMPDEST PUSH1 0x0 DUP2 CALLDATALOAD SWAP1 POP PUSH2 0x2014 DUP2 PUSH2 0x1FEE JUMP JUMPDEST SWAP3 SWAP2 POP POP JUMP JUMPDEST PUSH1 0x0 PUSH20 0xFFFFFFFFFFFFFFFFFFFFFFFFFFFFFFFFFFFFFFFF DUP3 AND SWAP1 POP SWAP2 SWAP1 POP JUMP JUMPDEST PUSH1 0x0 PUSH2 0x2045 DUP3 PUSH2 0x201A JUMP JUMPDEST SWAP1 POP SWAP2 SWAP1 POP JUMP JUMPDEST PUSH2 0x2055 DUP2 PUSH2 0x203A JUMP JUMPDEST DUP2 EQ PUSH2 0x2060 JUMPI PUSH1 0x0 DUP1 REVERT JUMPDEST POP JUMP JUMPDEST PUSH1 0x0 DUP2 CALLDATALOAD SWAP1 POP PUSH2 0x2072 DUP2 PUSH2 0x204C JUMP JUMPDEST SWAP3 SWAP2 POP POP JUMP JUMPDEST PUSH1 0x0 DUP1 PUSH1 0x40 DUP4 DUP6 SUB SLT ISZERO PUSH2 0x208F JUMPI PUSH2 0x208E PUSH2 0x1F15 JUMP JUMPDEST JUMPDEST PUSH1 0x0 PUSH2 0x209D DUP6 DUP3 DUP7 ADD PUSH2 0x2005 JUMP JUMPDEST SWAP3 POP POP PUSH1 0x20 PUSH2 0x20AE DUP6 DUP3 DUP7 ADD PUSH2 0x2063 JUMP JUMPDEST SWAP2 POP POP SWAP3 POP SWAP3 SWAP1 POP JUMP JUMPDEST PUSH1 0x0 DUP2 SWAP1 POP SWAP2 SWAP1 POP JUMP JUMPDEST PUSH2 0x20CB DUP2 PUSH2 0x20B8 JUMP JUMPDEST DUP3 MSTORE POP POP JUMP JUMPDEST PUSH1 0x0 PUSH1 0x20 DUP3 ADD SWAP1 POP PUSH2 0x20E6 PUSH1 0x0 DUP4 ADD DUP5 PUSH2 0x20C2 JUMP JUMPDEST SWAP3 SWAP2 POP POP JUMP JUMPDEST PUSH2 0x20F5 DUP2 PUSH2 0x20B8 JUMP JUMPDEST DUP2 EQ PUSH2 0x2100 JUMPI PUSH1 0x0 DUP1 REVERT JUMPDEST POP JUMP JUMPDEST PUSH1 0x0 DUP2 CALLDATALOAD SWAP1 POP PUSH2 0x2112 DUP2 PUSH2 0x20EC JUMP JUMPDEST SWAP3 SWAP2 POP POP JUMP JUMPDEST PUSH1 0x0 PUSH1 0x20 DUP3 DUP5 SUB SLT ISZERO PUSH2 0x212E JUMPI PUSH2 0x212D PUSH2 0x1F15 JUMP JUMPDEST JUMPDEST PUSH1 0x0 PUSH2 0x213C DUP5 DUP3 DUP6 ADD PUSH2 0x2103 JUMP JUMPDEST SWAP2 POP POP SWAP3 SWAP2 POP POP JUMP JUMPDEST PUSH2 0x214E DUP2 PUSH2 0x203A JUMP JUMPDEST DUP3 MSTORE POP POP JUMP JUMPDEST PUSH2 0x215D DUP2 PUSH2 0x1FA4 JUMP JUMPDEST DUP3 MSTORE POP POP JUMP JUMPDEST PUSH2 0x216C DUP2 PUSH2 0x1FDA JUMP JUMPDEST DUP3 MSTORE POP POP JUMP JUMPDEST PUSH1 0x0 DUP2 MLOAD SWAP1 POP SWAP2 SWAP1 POP JUMP JUMPDEST PUSH1 0x0 DUP3 DUP3 MSTORE PUSH1 0x20 DUP3 ADD SWAP1 POP SWAP3 SWAP2 POP POP JUMP JUMPDEST PUSH1 0x0 DUP2 SWAP1 POP PUSH1 0x20 DUP3 ADD SWAP1 POP SWAP2 SWAP1 POP JUMP JUMPDEST PUSH1 0x0 PUSH2 0x21AA DUP4 DUP4 PUSH2 0x2154 JUMP JUMPDEST PUSH1 0x20 DUP4 ADD SWAP1 POP SWAP3 SWAP2 POP POP JUMP JUMPDEST PUSH1 0x0 PUSH1 0x20 DUP3 ADD SWAP1 POP SWAP2 SWAP1 POP JUMP JUMPDEST PUSH1 0x0 PUSH2 0x21CE DUP3 PUSH2 0x2172 JUMP JUMPDEST PUSH2 0x21D8 DUP2 DUP6 PUSH2 0x217D JUMP JUMPDEST SWAP4 POP PUSH2 0x21E3 DUP4 PUSH2 0x218E JUMP JUMPDEST DUP1 PUSH1 0x0 JUMPDEST DUP4 DUP2 LT ISZERO PUSH2 0x2214 JUMPI DUP2 MLOAD PUSH2 0x21FB DUP9 DUP3 PUSH2 0x219E JUMP JUMPDEST SWAP8 POP PUSH2 0x2206 DUP4 PUSH2 0x21B6 JUMP JUMPDEST SWAP3 POP POP PUSH1 0x1 DUP2 ADD SWAP1 POP PUSH2 0x21E7 JUMP JUMPDEST POP DUP6 SWAP4 POP POP POP POP SWAP3 SWAP2 POP POP JUMP JUMPDEST PUSH1 0x0 PUSH16 0xFFFFFFFFFFFFFFFFFFFFFFFFFFFFFFFF DUP3 AND SWAP1 POP SWAP2 SWAP1 POP JUMP JUMPDEST PUSH2 0x2246 DUP2 PUSH2 0x2221 JUMP JUMPDEST DUP3 MSTORE POP POP JUMP JUMPDEST PUSH1 0x0 PUSH2 0x100 DUP4 ADD PUSH1 0x0 DUP4 ADD MLOAD PUSH2 0x2265 PUSH1 0x0 DUP7 ADD DUP3 PUSH2 0x2145 JUMP JUMPDEST POP PUSH1 0x20 DUP4 ADD MLOAD PUSH2 0x2278 PUSH1 0x20 DUP7 ADD DUP3 PUSH2 0x2145 JUMP JUMPDEST POP PUSH1 0x40 DUP4 ADD MLOAD PUSH2 0x228B PUSH1 0x40 DUP7 ADD DUP3 PUSH2 0x2154 JUMP JUMPDEST POP PUSH1 0x60 DUP4 ADD MLOAD PUSH2 0x229E PUSH1 0x60 DUP7 ADD DUP3 PUSH2 0x2163 JUMP JUMPDEST POP PUSH1 0x80 DUP4 ADD MLOAD PUSH2 0x22B1 PUSH1 0x80 DUP7 ADD DUP3 PUSH2 0x2163 JUMP JUMPDEST POP PUSH1 0xA0 DUP4 ADD MLOAD PUSH2 0x22C4 PUSH1 0xA0 DUP7 ADD DUP3 PUSH2 0x2163 JUMP JUMPDEST POP PUSH1 0xC0 DUP4 ADD MLOAD DUP5 DUP3 SUB PUSH1 0xC0 DUP7 ADD MSTORE PUSH2 0x22DC DUP3 DUP3 PUSH2 0x21C3 JUMP JUMPDEST SWAP2 POP POP PUSH1 0xE0 DUP4 ADD MLOAD PUSH2 0x22F1 PUSH1 0xE0 DUP7 ADD DUP3 PUSH2 0x223D JUMP JUMPDEST POP DUP1 SWAP2 POP POP SWAP3 SWAP2 POP POP JUMP JUMPDEST PUSH1 0x0 PUSH1 0x20 DUP3 ADD SWAP1 POP DUP2 DUP2 SUB PUSH1 0x0 DUP4 ADD MSTORE PUSH2 0x2316 DUP2 DUP5 PUSH2 0x224C JUMP JUMPDEST SWAP1 POP SWAP3 SWAP2 POP POP JUMP JUMPDEST PUSH1 0x0 DUP2 SWAP1 POP SWAP2 SWAP1 POP JUMP JUMPDEST PUSH2 0x2331 DUP2 PUSH2 0x231E JUMP JUMPDEST DUP2 EQ PUSH2 0x233C JUMPI PUSH1 0x0 DUP1 REVERT JUMPDEST POP JUMP JUMPDEST PUSH1 0x0 DUP2 CALLDATALOAD SWAP1 POP PUSH2 0x234E DUP2 PUSH2 0x2328 JUMP JUMPDEST SWAP3 SWAP2 POP POP JUMP JUMPDEST PUSH1 0x0 PUSH1 0x20 DUP3 DUP5 SUB SLT ISZERO PUSH2 0x236A JUMPI PUSH2 0x2369 PUSH2 0x1F15 JUMP JUMPDEST JUMPDEST PUSH1 0x0 PUSH2 0x2378 DUP5 DUP3 DUP6 ADD PUSH2 0x233F JUMP JUMPDEST SWAP2 POP POP SWAP3 SWAP2 POP POP JUMP JUMPDEST PUSH2 0x238A DUP2 PUSH2 0x231E JUMP JUMPDEST DUP3 MSTORE POP POP JUMP JUMPDEST PUSH1 0x0 PUSH1 0x20 DUP3 ADD SWAP1 POP PUSH2 0x23A5 PUSH1 0x0 DUP4 ADD DUP5 PUSH2 0x2381 JUMP JUMPDEST SWAP3 SWAP2 POP POP JUMP JUMPDEST PUSH1 0x0 PUSH1 0x20 DUP3 DUP5 SUB SLT ISZERO PUSH2 0x23C1 JUMPI PUSH2 0x23C0 PUSH2 0x1F15 JUMP JUMPDEST JUMPDEST PUSH1 0x0 PUSH2 0x23CF DUP5 DUP3 DUP6 ADD PUSH2 0x2063 JUMP JUMPDEST SWAP2 POP POP SWAP3 SWAP2 POP POP JUMP JUMPDEST PUSH1 0x0 DUP1 PUSH1 0x40 DUP4 DUP6 SUB SLT ISZERO PUSH2 0x23EF JUMPI PUSH2 0x23EE PUSH2 0x1F15 JUMP JUMPDEST JUMPDEST PUSH1 0x0 PUSH2 0x23FD DUP6 DUP3 DUP7 ADD PUSH2 0x233F JUMP JUMPDEST SWAP3 POP POP PUSH1 0x20 PUSH2 0x240E DUP6 DUP3 DUP7 ADD PUSH2 0x2063 JUMP JUMPDEST SWAP2 POP POP SWAP3 POP SWAP3 SWAP1 POP JUMP JUMPDEST PUSH2 0x2421 DUP2 PUSH2 0x1FDA JUMP JUMPDEST DUP3 MSTORE POP POP JUMP JUMPDEST PUSH1 0x0 PUSH1 0x20 DUP3 ADD SWAP1 POP PUSH2 0x243C PUSH1 0x0 DUP4 ADD DUP5 PUSH2 0x2418 JUMP JUMPDEST SWAP3 SWAP2 POP POP JUMP JUMPDEST PUSH2 0x244B DUP2 PUSH2 0x203A JUMP JUMPDEST DUP3 MSTORE POP POP JUMP JUMPDEST PUSH2 0x245A DUP2 PUSH2 0x2221 JUMP JUMPDEST DUP3 MSTORE POP POP JUMP JUMPDEST PUSH1 0x0 PUSH1 0xE0 DUP3 ADD SWAP1 POP PUSH2 0x2475 PUSH1 0x0 DUP4 ADD DUP11 PUSH2 0x2442 JUMP JUMPDEST PUSH2 0x2482 PUSH1 0x20 DUP4 ADD DUP10 PUSH2 0x2442 JUMP JUMPDEST PUSH2 0x248F PUSH1 0x40 DUP4 ADD DUP9 PUSH2 0x1FB0 JUMP JUMPDEST PUSH2 0x249C PUSH1 0x60 DUP4 ADD DUP8 PUSH2 0x2418 JUMP JUMPDEST PUSH2 0x24A9 PUSH1 0x80 DUP4 ADD DUP7 PUSH2 0x2418 JUMP JUMPDEST PUSH2 0x24B6 PUSH1 0xA0 DUP4 ADD DUP6 PUSH2 0x2418 JUMP JUMPDEST PUSH2 0x24C3 PUSH1 0xC0 DUP4 ADD DUP5 PUSH2 0x2451 JUMP JUMPDEST SWAP9 SWAP8 POP POP POP POP POP POP POP POP JUMP JUMPDEST PUSH1 0x0 DUP1 PUSH1 0x40 DUP4 DUP6 SUB SLT ISZERO PUSH2 0x24E6 JUMPI PUSH2 0x24E5 PUSH2 0x1F15 JUMP JUMPDEST JUMPDEST PUSH1 0x0 PUSH2 0x24F4 DUP6 DUP3 DUP7 ADD PUSH2 0x2103 JUMP JUMPDEST SWAP3 POP POP PUSH1 0x20 PUSH2 0x2505 DUP6 DUP3 DUP7 ADD PUSH2 0x2005 JUMP JUMPDEST SWAP2 POP POP SWAP3 POP SWAP3 SWAP1 POP JUMP JUMPDEST PUSH1 0x0 DUP1 REVERT JUMPDEST PUSH1 0x0 DUP1 REVERT JUMPDEST PUSH1 0x0 DUP1 REVERT JUMPDEST PUSH1 0x0 DUP1 DUP4 PUSH1 0x1F DUP5 ADD SLT PUSH2 0x2534 JUMPI PUSH2 0x2533 PUSH2 0x250F JUMP JUMPDEST JUMPDEST DUP3 CALLDATALOAD SWAP1 POP PUSH8 0xFFFFFFFFFFFFFFFF DUP2 GT ISZERO PUSH2 0x2551 JUMPI PUSH2 0x2550 PUSH2 0x2514 JUMP JUMPDEST JUMPDEST PUSH1 0x20 DUP4 ADD SWAP2 POP DUP4 PUSH1 0x1 DUP3 MUL DUP4 ADD GT ISZERO PUSH2 0x256D JUMPI PUSH2 0x256C PUSH2 0x2519 JUMP JUMPDEST JUMPDEST SWAP3 POP SWAP3 SWAP1 POP JUMP JUMPDEST PUSH1 0x0 DUP1 PUSH1 0x0 DUP1 PUSH1 0x60 DUP6 DUP8 SUB SLT ISZERO PUSH2 0x258E JUMPI PUSH2 0x258D PUSH2 0x1F15 JUMP JUMPDEST JUMPDEST PUSH1 0x0 PUSH2 0x259C DUP8 DUP3 DUP9 ADD PUSH2 0x2103 JUMP JUMPDEST SWAP5 POP POP PUSH1 0x20 PUSH2 0x25AD DUP8 DUP3 DUP9 ADD PUSH2 0x2005 JUMP JUMPDEST SWAP4 POP POP PUSH1 0x40 DUP6 ADD CALLDATALOAD PUSH8 0xFFFFFFFFFFFFFFFF DUP2 GT ISZERO PUSH2 0x25CE JUMPI PUSH2 0x25CD PUSH2 0x1F1A JUMP JUMPDEST JUMPDEST PUSH2 0x25DA DUP8 DUP3 DUP9 ADD PUSH2 0x251E JUMP JUMPDEST SWAP3 POP SWAP3 POP POP SWAP3 SWAP6 SWAP2 SWAP5 POP SWAP3 POP JUMP JUMPDEST PUSH1 0x0 DUP1 PUSH1 0x40 DUP4 DUP6 SUB SLT ISZERO PUSH2 0x25FF JUMPI PUSH2 0x25FE PUSH2 0x1F15 JUMP JUMPDEST JUMPDEST PUSH1 0x0 PUSH2 0x260D DUP6 DUP3 DUP7 ADD PUSH2 0x2063 JUMP JUMPDEST SWAP3 POP POP PUSH1 0x20 PUSH2 0x261E DUP6 DUP3 DUP7 ADD PUSH2 0x2103 JUMP JUMPDEST SWAP2 POP POP SWAP3 POP SWAP3 SWAP1 POP JUMP JUMPDEST PUSH1 0x0 DUP3 DUP3 MSTORE PUSH1 0x20 DUP3 ADD SWAP1 POP SWAP3 SWAP2 POP POP JUMP JUMPDEST PUSH32 0x4465706F73697420726571756972656400000000000000000000000000000000 PUSH1 0x0 DUP3 ADD MSTORE POP JUMP JUMPDEST PUSH1 0x0 PUSH2 0x266F PUSH1 0x10 DUP4 PUSH2 0x2628 JUMP JUMPDEST SWAP2 POP PUSH2 0x267A DUP3 PUSH2 0x2639 JUMP JUMPDEST PUSH1 0x20 DUP3 ADD SWAP1 POP SWAP2 SWAP1 POP JUMP JUMPDEST PUSH1 0x0 PUSH1 0x20 DUP3 ADD SWAP1 POP DUP2 DUP2 SUB PUSH1 0x0 DUP4 ADD MSTORE PUSH2 0x269E DUP2 PUSH2 0x2662 JUMP JUMPDEST SWAP1 POP SWAP2 SWAP1 POP JUMP JUMPDEST PUSH32 0x4E487B7100000000000000000000000000000000000000000000000000000000 PUSH1 0x0 MSTORE PUSH1 0x32 PUSH1 0x4 MSTORE PUSH1 0x24 PUSH1 0x0 REVERT JUMPDEST PUSH32 0x4E487B7100000000000000000000000000000000000000000000000000000000 PUSH1 0x0 MSTORE PUSH1 0x41 PUSH1 0x4 MSTORE PUSH1 0x24 PUSH1 0x0 REVERT JUMPDEST PUSH32 0x4E487B7100000000000000000000000000000000000000000000000000000000 PUSH1 0x0 MSTORE PUSH1 0x12 PUSH1 0x4 MSTORE PUSH1 0x24 PUSH1 0x0 REVERT JUMPDEST PUSH32 0x4E487B7100000000000000000000000000000000000000000000000000000000 PUSH1 0x0 MSTORE PUSH1 0x11 PUSH1 0x4 MSTORE PUSH1 0x24 PUSH1 0x0 REVERT JUMPDEST PUSH1 0x0 PUSH2 0x276C DUP3 PUSH2 0x1FDA JUMP JUMPDEST SWAP2 POP PUSH2 0x2777 DUP4 PUSH2 0x1FDA JUMP JUMPDEST SWAP3 POP DUP3 PUSH2 0x2787 JUMPI PUSH2 0x2786 PUSH2 0x2703 JUMP JUMPDEST JUMPDEST DUP3 DUP3 DIV SWAP1 POP SWAP3 SWAP2 POP POP JUMP JUMPDEST PUSH32 0x4E6F7420617574686F72697A6564000000000000000000000000000000000000 PUSH1 0x0 DUP3 ADD MSTORE POP JUMP JUMPDEST PUSH1 0x0 PUSH2 0x27C8 PUSH1 0xE DUP4 PUSH2 0x2628 JUMP JUMPDEST SWAP2 POP PUSH2 0x27D3 DUP3 PUSH2 0x2792 JUMP JUMPDEST PUSH1 0x20 DUP3 ADD SWAP1 POP SWAP2 SWAP1 POP JUMP JUMPDEST PUSH1 0x0 PUSH1 0x20 DUP3 ADD SWAP1 POP DUP2 DUP2 SUB PUSH1 0x0 DUP4 ADD MSTORE PUSH2 0x27F7 DUP2 PUSH2 0x27BB JUMP JUMPDEST SWAP1 POP SWAP2 SWAP1 POP JUMP JUMPDEST PUSH32 0x416C72656164792066696E616C697A6564000000000000000000000000000000 PUSH1 0x0 DUP3 ADD MSTORE POP JUMP JUMPDEST PUSH1 0x0 PUSH2 0x2834 PUSH1 0x11 DUP4 PUSH2 0x2628 JUMP JUMPDEST SWAP2 POP PUSH2 0x283F DUP3 PUSH2 0x27FE JUMP JUMPDEST PUSH1 0x20 DUP3 ADD SWAP1 POP SWAP2 SWAP1 POP JUMP JUMPDEST PUSH1 0x0 PUSH1 0x20 DUP3 ADD SWAP1 POP DUP2 DUP2 SUB PUSH1 0x0 DUP4 ADD MSTORE PUSH2 0x2863 DUP2 PUSH2 0x2827 JUMP JUMPDEST SWAP1 POP SWAP2 SWAP1 POP JUMP JUMPDEST PUSH1 0x0 PUSH2 0x2875 DUP3 PUSH2 0x1FDA JUMP JUMPDEST SWAP2 POP PUSH2 0x2880 DUP4 PUSH2 0x1FDA JUMP JUMPDEST SWAP3 POP DUP3 DUP3 ADD SWAP1 POP PUSH8 0xFFFFFFFFFFFFFFFF DUP2 GT ISZERO PUSH2 0x28A0 JUMPI PUSH2 0x289F PUSH2 0x2732 JUMP JUMPDEST JUMPDEST SWAP3 SWAP2 POP POP JUMP JUMPDEST PUSH32 0x4368616C6C656E6765206F6E676F696E67000000000000000000000000000000 PUSH1 0x0 DUP3 ADD MSTORE POP JUMP JUMPDEST PUSH1 0x0 PUSH2 0x28DC PUSH1 0x11 DUP4 PUSH2 0x2628 JUMP JUMPDEST SWAP2 POP PUSH2 0x28E7 DUP3 PUSH2 0x28A6 JUMP JUMPDEST PUSH1 0x20 DUP3 ADD SWAP1 POP SWAP2 SWAP1 POP JUMP JUMPDEST PUSH1 0x0 PUSH1 0x20 DUP3 ADD SWAP1 POP DUP2 DUP2 SUB PUSH1 0x0 DUP4 ADD MSTORE PUSH2 0x290B DUP2 PUSH2 0x28CF JUMP JUMPDEST SWAP1 POP SWAP2 SWAP1 POP JUMP JUMPDEST PUSH1 0x0 PUSH2 0x291D DUP3 PUSH2 0x1FDA JUMP JUMPDEST SWAP2 POP PUSH2 0x2928 DUP4 PUSH2 0x1FDA JUMP JUMPDEST SWAP3 POP DUP3 DUP3 SUB SWAP1 POP PUSH8 0xFFFFFFFFFFFFFFFF DUP2 GT ISZERO PUSH2 0x2948 JUMPI PUSH2 0x2947 PUSH2 0x2732 JUMP JUMPDEST JUMPDEST SWAP3 SWAP2 POP POP JUMP JUMPDEST PUSH1 0x0 PUSH2 0x2959 DUP3 PUSH2 0x2221 JUMP JUMPDEST SWAP2 POP PUSH2 0x2964 DUP4 PUSH2 0x2221 JUMP JUMPDEST SWAP3 POP DUP3 DUP3 MUL PUSH2 0x2972 DUP2 PUSH2 0x2221 JUMP JUMPDEST SWAP2 POP DUP1 DUP3 EQ PUSH2 0x2984 JUMPI PUSH2 0x2983 PUSH2 0x2732 JUMP JUMPDEST JUMPDEST POP SWAP3 SWAP2 POP POP JUMP JUMPDEST PUSH1 0x0 PUSH2 0x2996 DUP3 PUSH2 0x2221 JUMP JUMPDEST SWAP2 POP PUSH2 0x29A1 DUP4 PUSH2 0x2221 JUMP JUMPDEST SWAP3 POP DUP3 PUSH2 0x29B1 JUMPI PUSH2 0x29B0 PUSH2 0x2703 JUMP JUMPDEST JUMPDEST DUP3 DUP3 DIV SWAP1 POP SWAP3 SWAP2 POP POP JUMP JUMPDEST PUSH1 0x0 DUP2 SWAP1 POP SWAP3 SWAP2 POP POP JUMP JUMPDEST POP JUMP JUMPDEST PUSH1 0x0 PUSH2 0x29D7 PUSH1 0x0 DUP4 PUSH2 0x29BC JUMP JUMPDEST SWAP2 POP PUSH2 0x29E2 DUP3 PUSH2 0x29C7 JUMP JUMPDEST PUSH1 0x0 DUP3 ADD SWAP1 POP SWAP2 SWAP1 POP JUMP JUMPDEST PUSH1 0x0 PUSH2 0x29F8 DUP3 PUSH2 0x29CA JUMP JUMPDEST SWAP2 POP DUP2 SWAP1 POP SWAP2 SWAP1 POP JUMP JUMPDEST PUSH32 0x526566756E64206661696C656400000000000000000000000000000000000000 PUSH1 0x0 DUP3 ADD MSTORE POP JUMP JUMPDEST PUSH1 0x0 PUSH2 0x2A38 PUSH1 0xD DUP4 PUSH2 0x2628 JUMP JUMPDEST SWAP2 POP PUSH2 0x2A43 DUP3 PUSH2 0x2A02 JUMP JUMPDEST PUSH1 0x20 DUP3 ADD SWAP1 POP SWAP2 SWAP1 POP JUMP JUMPDEST PUSH1 0x0 PUSH1 0x20 DUP3 ADD SWAP1 POP DUP2 DUP2 SUB PUSH1 0x0 DUP4 ADD MSTORE PUSH2 0x2A67 DUP2 PUSH2 0x2A2B JUMP JUMPDEST SWAP1 POP SWAP2 SWAP1 POP JUMP JUMPDEST PUSH32 0x4368616C6C656E676520656E6465640000000000000000000000000000000000 PUSH1 0x0 DUP3 ADD MSTORE POP JUMP JUMPDEST PUSH1 0x0 PUSH2 0x2AA4 PUSH1 0xF DUP4 PUSH2 0x2628 JUMP JUMPDEST SWAP2 POP PUSH2 0x2AAF DUP3 PUSH2 0x2A6E JUMP JUMPDEST PUSH1 0x20 DUP3 ADD SWAP1 POP SWAP2 SWAP1 POP JUMP JUMPDEST PUSH1 0x0 PUSH1 0x20 DUP3 ADD SWAP1 POP DUP2 DUP2 SUB PUSH1 0x0 DUP4 ADD MSTORE PUSH2 0x2AD3 DUP2 PUSH2 0x2A97 JUMP JUMPDEST SWAP1 POP SWAP2 SWAP1 POP JUMP JUMPDEST PUSH1 0x0 PUSH2 0x2AE5 DUP3 PUSH2 0x1FDA JUMP JUMPDEST SWAP2 POP PUSH8 0xFFFFFFFFFFFFFFFF DUP3 SUB PUSH2 0x2AFF JUMPI PUSH2 0x2AFE PUSH2 0x2732 JUMP JUMPDEST JUMPDEST PUSH1 0x1 DUP3 ADD SWAP1 POP SWAP2 SWAP1 POP JUMP JUMPDEST PUSH32 0x4368616C6C656E67652066696E616C697A656400000000000000000000000000 PUSH1 0x0 DUP3 ADD MSTORE POP JUMP JUMPDEST PUSH1 0x0 PUSH2 0x2B40 PUSH1 0x13 DUP4 PUSH2 0x2628 JUMP JUMPDEST SWAP2 POP PUSH2 0x2B4B DUP3 PUSH2 0x2B0A JUMP JUMPDEST PUSH1 0x20 DUP3 ADD SWAP1 POP SWAP2 SWAP1 POP JUMP JUMPDEST PUSH1 0x0 PUSH1 0x20 DUP3 ADD SWAP1 POP DUP2 DUP2 SUB PUSH1 0x0 DUP4 ADD MSTORE PUSH2 0x2B6F DUP2 PUSH2 0x2B33 JUMP JUMPDEST SWAP1 POP SWAP2 SWAP1 POP JUMP JUMPDEST PUSH32 0x496E76616C69642064617920696E646578000000000000000000000000000000 PUSH1 0x0 DUP3 ADD MSTORE POP JUMP JUMPDEST PUSH1 0x0 PUSH2 0x2BAC PUSH1 0x11 DUP4 PUSH2 0x2628 JUMP JUMPDEST SWAP2 POP PUSH2 0x2BB7 DUP3 PUSH2 0x2B76 JUMP JUMPDEST PUSH1 0x20 DUP3 ADD SWAP1 POP SWAP2 SWAP1 POP JUMP JUMPDEST PUSH1 0x0 PUSH1 0x20 DUP3 ADD SWAP1 POP DUP2 DUP2 SUB PUSH1 0x0 DUP4 ADD MSTORE PUSH2 0x2BDB DUP2 PUSH2 0x2B9F JUMP JUMPDEST SWAP1 POP SWAP2 SWAP1 POP JUMP JUMPDEST PUSH1 0x0 PUSH1 0x60 DUP3 ADD SWAP1 POP PUSH2 0x2BF7 PUSH1 0x0 DUP4 ADD DUP7 PUSH2 0x2381 JUMP JUMPDEST PUSH2 0x2C04 PUSH1 0x20 DUP4 ADD DUP6 PUSH2 0x20C2 JUMP JUMPDEST PUSH2 0x2C11 PUSH1 0x40 DUP4 ADD DUP5 PUSH2 0x2418 JUMP JUMPDEST SWAP5 SWAP4 POP POP POP POP JUMP JUMPDEST PUSH1 0x0 DUP2 SWAP1 POP SWAP3 SWAP2 POP POP JUMP JUMPDEST PUSH32 0x1901000000000000000000000000000000000000000000000000000000000000 PUSH1 0x0 DUP3 ADD MSTORE POP JUMP JUMPDEST PUSH1 0x0 PUSH2 0x2C5A PUSH1 0x2 DUP4 PUSH2 0x2C19 JUMP JUMPDEST SWAP2 POP PUSH2 0x2C65 DUP3 PUSH2 0x2C24 JUMP JUMPDEST PUSH1 0x2 DUP3 ADD SWAP1 POP SWAP2 SWAP1 POP JUMP JUMPDEST PUSH1 0x0 DUP2 SWAP1 POP SWAP2 SWAP1 POP JUMP JUMPDEST PUSH2 0x2C8B PUSH2 0x2C86 DUP3 PUSH2 0x231E JUMP JUMPDEST PUSH2 0x2C70 JUMP JUMPDEST DUP3 MSTORE POP POP JUMP JUMPDEST PUSH1 0x0 PUSH2 0x2C9C DUP3 PUSH2 0x2C4D JUMP JUMPDEST SWAP2 POP PUSH2 0x2CA8 DUP3 DUP6 PUSH2 0x2C7A JUMP JUMPDEST PUSH1 0x20 DUP3 ADD SWAP2 POP PUSH2 0x2CB8 DUP3 DUP5 PUSH2 0x2C7A JUMP JUMPDEST PUSH1 0x20 DUP3 ADD SWAP2 POP DUP2 SWAP1 POP SWAP4 SWAP3 POP POP POP JUMP JUMPDEST PUSH32 0x496E76616C6964207369676E6174757265000000000000000000000000000000 PUSH1 0x0 DUP3 ADD MSTORE POP JUMP JUMPDEST PUSH1 0x0 PUSH2 0x2CFE PUSH1 0x11 DUP4 PUSH2 0x2628 JUMP JUMPDEST SWAP2 POP PUSH2 0x2D09 DUP3 PUSH2 0x2CC8 JUMP JUMPDEST PUSH1 0x20 DUP3 ADD SWAP1 POP SWAP2 SWAP1 POP JUMP JUMPDEST PUSH1 0x0 PUSH1 0x20 DUP3 ADD SWAP1 POP DUP2 DUP2 SUB PUSH1 0x0 DUP4 ADD MSTORE PUSH2 0x2D2D DUP2 PUSH2 0x2CF1 JUMP JUMPDEST SWAP1 POP SWAP2 SWAP1 POP JUMP JUMPDEST PUSH32 0x5769746864726177206661696C65640000000000000000000000000000000000 PUSH1 0x0 DUP3 ADD MSTORE POP JUMP JUMPDEST PUSH1 0x0 PUSH2 0x2D6A PUSH1 0xF DUP4 PUSH2 0x2628 JUMP JUMPDEST SWAP2 POP PUSH2 0x2D75 DUP3 PUSH2 0x2D34 JUMP JUMPDEST PUSH1 0x20 DUP3 ADD SWAP1 POP SWAP2 SWAP1 POP JUMP JUMPDEST PUSH1 0x0 PUSH1 0x20 DUP3 ADD SWAP1 POP DUP2 DUP2 SUB PUSH1 0x0 DUP4 ADD MSTORE PUSH2 0x2D99 DUP2 PUSH2 0x2D5D JUMP JUMPDEST SWAP1 POP SWAP2 SWAP1 POP JUMP JUMPDEST PUSH1 0x0 PUSH1 0x40 DUP3 ADD SWAP1 POP PUSH2 0x2DB5 PUSH1 0x0 DUP4 ADD DUP6 PUSH2 0x2442 JUMP JUMPDEST PUSH2 0x2DC2 PUSH1 0x20 DUP4 ADD DUP5 PUSH2 0x2381 JUMP JUMPDEST SWAP4 SWAP3 POP POP POP JUMP JUMPDEST PUSH32 0x4E487B7100000000000000000000000000000000000000000000000000000000 PUSH1 0x0 MSTORE PUSH1 0x21 PUSH1 0x4 MSTORE PUSH1 0x24 PUSH1 0x0 REVERT JUMPDEST PUSH1 0x0 PUSH1 0xFF DUP3 AND SWAP1 POP SWAP2 SWAP1 POP JUMP JUMPDEST PUSH2 0x2E0E DUP2 PUSH2 0x2DF8 JUMP JUMPDEST DUP3 MSTORE POP POP JUMP JUMPDEST PUSH1 0x0 PUSH1 0x80 DUP3 ADD SWAP1 POP PUSH2 0x2E29 PUSH1 0x0 DUP4 ADD DUP8 PUSH2 0x2381 JUMP JUMPDEST PUSH2 0x2E36 PUSH1 0x20 DUP4 ADD DUP7 PUSH2 0x2E05 JUMP JUMPDEST PUSH2 0x2E43 PUSH1 0x40 DUP4 ADD DUP6 PUSH2 0x2381 JUMP JUMPDEST PUSH2 0x2E50 PUSH1 0x60 DUP4 ADD DUP5 PUSH2 0x2381 JUMP JUMPDEST SWAP6 SWAP5 POP POP POP POP POP JUMP INVALID LOG2 PUSH5 0x6970667358 0x22 SLT KECCAK256 AND 0xA8 PUSH15 0x6884D1F62B16F59EA3B2135F352070 0xCC 0xC8 SWAP5 0xE8 MUL GASLIMIT PUSH19 0x62E4B72F1BB17964736F6C634300081C003300 "
        },
        "methodIdentifiers": {
          "ADMIN_ROLE()": "75b238fc",
          "DEFAULT_ADMIN_ROLE()": "a217fddf",
          "DOMAIN_SEPARATOR()": "3644e515",
          "FUND_MANAGER()": "755e5548",
          "REPORT_TYPEHASH()": "4a882fc3",
          "addManager(address)": "2d06177a",
          "challenges(uint256)": "8f1d3776",
          "finalizeChallenge(uint256)": "484dd61a",
          "getChallenge(uint256)": "1bdd4b74",
          "getCurrentDay()": "3e6968b6",
          "getRoleAdmin(bytes32)": "248a9ca3",
          "grantRole(bytes32,address)": "2f2ff15d",
          "hasRole(bytes32,address)": "91d14854",
          "initiateChallenge(uint64,address)": "17da414d",
          "removeManager(address)": "ac18de43",
          "renounceRole(bytes32,address)": "36568abe",
          "reportMissedDay(uint256,uint64)": "8fe1e5f9",
          "reportMissedDayWithSignature(uint256,uint64,bytes)": "cdf6caa1",
          "revokeRole(bytes32,address)": "d547741f",
          "supportsInterface(bytes4)": "01ffc9a7",
          "withdraw(address,uint256)": "f3fef3a3"
        }
      }
    }
  }
}